{
  "_format": "hh-sol-artifact-1",
  "contractName": "ExampleSwapToPrice",
  "sourceName": "contracts/examples/ExampleSwapToPrice.sol",
  "abi": [
    {
      "inputs": [
        {
          "internalType": "address",
          "name": "factory_",
          "type": "address"
        },
        {
          "internalType": "contract IUniswapV2Router01",
          "name": "router_",
          "type": "address"
        }
      ],
      "stateMutability": "nonpayable",
      "type": "constructor"
    },
    {
      "inputs": [],
      "name": "factory",
      "outputs": [
        {
          "internalType": "address",
          "name": "",
          "type": "address"
        }
      ],
      "stateMutability": "view",
      "type": "function"
    },
    {
      "inputs": [],
      "name": "router",
      "outputs": [
        {
          "internalType": "contract IUniswapV2Router01",
          "name": "",
          "type": "address"
        }
      ],
      "stateMutability": "view",
      "type": "function"
    },
    {
      "inputs": [
        {
          "internalType": "address",
          "name": "tokenA",
          "type": "address"
        },
        {
          "internalType": "address",
          "name": "tokenB",
          "type": "address"
        },
        {
          "internalType": "uint256",
          "name": "truePriceTokenA",
          "type": "uint256"
        },
        {
          "internalType": "uint256",
          "name": "truePriceTokenB",
          "type": "uint256"
        },
        {
          "internalType": "uint256",
          "name": "maxSpendTokenA",
          "type": "uint256"
        },
        {
          "internalType": "uint256",
          "name": "maxSpendTokenB",
          "type": "uint256"
        },
        {
          "internalType": "address",
          "name": "to",
          "type": "address"
        },
        {
          "internalType": "uint256",
          "name": "deadline",
          "type": "uint256"
        }
      ],
      "name": "swapToPrice",
      "outputs": [],
      "stateMutability": "nonpayable",
      "type": "function"
    }
  ],
  "bytecode": "0x60c06040523480156200001157600080fd5b50604051620020ed380380620020ed8339818101604052810190620000379190620000db565b8173ffffffffffffffffffffffffffffffffffffffff1660a08173ffffffffffffffffffffffffffffffffffffffff1660601b815250508073ffffffffffffffffffffffffffffffffffffffff1660808173ffffffffffffffffffffffffffffffffffffffff1660601b81525050505062000198565b600081519050620000be8162000164565b92915050565b600081519050620000d5816200017e565b92915050565b60008060408385031215620000ef57600080fd5b6000620000ff85828601620000ad565b92505060206200011285828601620000c4565b9150509250929050565b6000620001298262000144565b9050919050565b60006200013d826200011c565b9050919050565b600073ffffffffffffffffffffffffffffffffffffffff82169050919050565b6200016f816200011c565b81146200017b57600080fd5b50565b620001898162000130565b81146200019557600080fd5b50565b60805160601c60a05160601c611f14620001d96000396000818161014a015261046d01526000818161021e015281816103a301526104910152611f146000f3fe608060405234801561001057600080fd5b50600436106100415760003560e01c8063bef90fd314610046578063c45a015514610062578063f887ea4014610080575b600080fd5b610060600480360381019061005b9190611209565b61009e565b005b61006a61046b565b60405161007791906118b1565b60405180910390f35b61008861048f565b604051610095919061192c565b60405180910390f35b600086141580156100b0575060008514155b6100ef576040517f08c379a00000000000000000000000000000000000000000000000000000000081526004016100e6906119a7565b60405180910390fd5b600084141580610100575060008314155b61013f576040517f08c379a000000000000000000000000000000000000000000000000000000000815260040161013690611967565b60405180910390fd5b6000806000806101707f00000000000000000000000000000000000000000000000000000000000000008d8d6104b3565b915091506101808a8a84846105c5565b80945081955050505050600081116101cd576040517f08c379a00000000000000000000000000000000000000000000000000000000081526004016101c490611a67565b60405180910390fd5b6000826101da57856101dc565b865b9050808211156101ea578091505b6000836101f7578a6101f9565b8b5b9050600084610208578c61020a565b8b5b9050610218823330876106c4565b610243827f0000000000000000000000000000000000000000000000000000000000000000866107fd565b6000600267ffffffffffffffff811115610286577f4e487b7100000000000000000000000000000000000000000000000000000000600052604160045260246000fd5b6040519080825280602002602001820160405280156102b45781602001602082028036833780820191505090505b50905082816000815181106102f2577f4e487b7100000000000000000000000000000000000000000000000000000000600052603260045260246000fd5b602002602001019073ffffffffffffffffffffffffffffffffffffffff16908173ffffffffffffffffffffffffffffffffffffffff16815250508181600181518110610367577f4e487b7100000000000000000000000000000000000000000000000000000000600052603260045260246000fd5b602002602001019073ffffffffffffffffffffffffffffffffffffffff16908173ffffffffffffffffffffffffffffffffffffffff16815250507f000000000000000000000000000000000000000000000000000000000000000073ffffffffffffffffffffffffffffffffffffffff166338ed1739866000848c8c6040518663ffffffff1660e01b8152600401610403959493929190611a87565b600060405180830381600087803b15801561041d57600080fd5b505af1158015610431573d6000803e3d6000fd5b505050506040513d6000823e3d601f19601f8201168201806040525081019061045a91906112bb565b505050505050505050505050505050565b7f000000000000000000000000000000000000000000000000000000000000000081565b7f000000000000000000000000000000000000000000000000000000000000000081565b60008060006104c28585610933565b5090506000806104d3888888610a61565b73ffffffffffffffffffffffffffffffffffffffff16630902f1ac6040518163ffffffff1660e01b815260040160606040518083038186803b15801561051857600080fd5b505afa15801561052c573d6000803e3d6000fd5b505050506040513d601f19601f820116820180604052508101906105509190611325565b506dffffffffffffffffffffffffffff1691506dffffffffffffffffffffffffffff1691508273ffffffffffffffffffffffffffffffffffffffff168773ffffffffffffffffffffffffffffffffffffffff16146105af5780826105b2565b81815b8095508196505050505050935093915050565b600080856105d4858786610ad3565b10915060006105ec8486610bc190919063ffffffff16565b9050600061064361063e61060b6103e885610bc190919063ffffffff16565b866106165789610618565b8a5b6106396103e589610629578d61062b565b8c5b610bc190919063ffffffff16565b610ad3565b610c2e565b905060006103e585610669576106646103e888610bc190919063ffffffff16565b61067f565b61067e6103e889610bc190919063ffffffff16565b5b6106899190611bff565b9050808210156106a257600080945094505050506106bb565b6106b58183610dfa90919063ffffffff16565b93505050505b94509492505050565b6000808573ffffffffffffffffffffffffffffffffffffffff166323b872dd8686866040516024016106f8939291906118cc565b6040516020818303038152906040529060e01b6020820180517bffffffffffffffffffffffffffffffffffffffffffffffffffffffff83818316178352505050506040516107469190611858565b6000604051808303816000865af19150503d8060008114610783576040519150601f19603f3d011682016040523d82523d6000602084013e610788565b606091505b50915091508180156107b657506000815114806107b55750808060200190518101906107b491906112fc565b5b5b6107f5576040517f08c379a00000000000000000000000000000000000000000000000000000000081526004016107ec906119c7565b60405180910390fd5b505050505050565b6000808473ffffffffffffffffffffffffffffffffffffffff1663095ea7b3858560405160240161082f929190611903565b6040516020818303038152906040529060e01b6020820180517bffffffffffffffffffffffffffffffffffffffffffffffffffffffff838183161783525050505060405161087d9190611858565b6000604051808303816000865af19150503d80600081146108ba576040519150601f19603f3d011682016040523d82523d6000602084013e6108bf565b606091505b50915091508180156108ed57506000815114806108ec5750808060200190518101906108eb91906112fc565b5b5b61092c576040517f08c379a000000000000000000000000000000000000000000000000000000000815260040161092390611a27565b60405180910390fd5b5050505050565b6000808273ffffffffffffffffffffffffffffffffffffffff168473ffffffffffffffffffffffffffffffffffffffff1614156109a5576040517f08c379a000000000000000000000000000000000000000000000000000000000815260040161099c906119e7565b60405180910390fd5b8273ffffffffffffffffffffffffffffffffffffffff168473ffffffffffffffffffffffffffffffffffffffff16106109df5782846109e2565b83835b8092508193505050600073ffffffffffffffffffffffffffffffffffffffff168273ffffffffffffffffffffffffffffffffffffffff161415610a5a576040517f08c379a0000000000000000000000000000000000000000000000000000000008152600401610a5190611a47565b60405180910390fd5b9250929050565b6000806000610a708585610933565b91509150858282604051602001610a8892919061182c565b60405160208183030381529060405280519060200120604051602001610aaf92919061186f565b6040516020818303038152906040528051906020012060001c925050509392505050565b6000806000610ae28686610e53565b9150915060008480610b1d577f4e487b7100000000000000000000000000000000000000000000000000000000600052601260045260246000fd5b868809905082811115610b3a57600182610b379190611c8a565b91505b8083610b469190611c8a565b92506000821415610b67578483610b5d9190611bff565b9350505050610bba565b848210610ba9576040517f08c379a0000000000000000000000000000000000000000000000000000000008152600401610ba090611a07565b60405180910390fd5b610bb4838387610eee565b93505050505b9392505050565b600080821480610be9575082828385610bda9190611c30565b925082610be79190611bff565b145b610c28576040517f08c379a0000000000000000000000000000000000000000000000000000000008152600401610c1f90611987565b60405180910390fd5b92915050565b600080821415610c415760009050610df5565b60008290506000600190507001000000000000000000000000000000008210610c7357608082901c9150604081901b90505b680100000000000000008210610c9257604082901c9150602081901b90505b6401000000008210610cad57602082901c9150601081901b90505b620100008210610cc657601082901c9150600881901b90505b6101008210610cde57600882901c9150600481901b90505b60108210610cf557600482901c9150600281901b90505b60088210610d0557600181901b90505b60018185610d139190611bff565b82610d1e9190611ba9565b901c905060018185610d309190611bff565b82610d3b9190611ba9565b901c905060018185610d4d9190611bff565b82610d589190611ba9565b901c905060018185610d6a9190611bff565b82610d759190611ba9565b901c905060018185610d879190611bff565b82610d929190611ba9565b901c905060018185610da49190611bff565b82610daf9190611ba9565b901c905060018185610dc19190611bff565b82610dcc9190611ba9565b901c905060008185610dde9190611bff565b9050808210610ded5780610def565b815b93505050505b919050565b6000828284610e099190611c8a565b9150811115610e4d576040517f08c379a0000000000000000000000000000000000000000000000000000000008152600401610e4490611947565b60405180910390fd5b92915050565b60008060007fffffffffffffffffffffffffffffffffffffffffffffffffffffffffffffffff80610ead577f4e487b7100000000000000000000000000000000000000000000000000000000600052601260045260246000fd5b84860990508385610ebe9190611c30565b92508281610ecc9190611c8a565b915082811015610ee657600182610ee39190611c8a565b91505b509250929050565b600080826001847fffffffffffffffffffffffffffffffffffffffffffffffffffffffffffffffff610f209190611c8a565b610f2a9190611ba9565b1690508083610f399190611bff565b92508085610f479190611bff565b94506001816001837fffffffffffffffffffffffffffffffffffffffffffffffffffffffffffffffff610f7a9190611c8a565b610f849190611ba9565b610f8e9190611bff565b610f989190611ba9565b84610fa39190611c30565b85610fae9190611ba9565b94506000600190508084610fc29190611c30565b6002610fce9190611c8a565b81610fd99190611c30565b90508084610fe79190611c30565b6002610ff39190611c8a565b81610ffe9190611c30565b9050808461100c9190611c30565b60026110189190611c8a565b816110239190611c30565b905080846110319190611c30565b600261103d9190611c8a565b816110489190611c30565b905080846110569190611c30565b60026110629190611c8a565b8161106d9190611c30565b9050808461107b9190611c30565b60026110879190611c8a565b816110929190611c30565b905080846110a09190611c30565b60026110ac9190611c8a565b816110b79190611c30565b905080846110c59190611c30565b60026110d19190611c8a565b816110dc9190611c30565b905080866110ea9190611c30565b925050509392505050565b600061110861110384611b12565b611ae1565b9050808382526020820190508285602086028201111561112757600080fd5b60005b85811015611157578161113d88826111df565b84526020840193506020830192505060018101905061112a565b5050509392505050565b60008135905061117081611e6b565b92915050565b600082601f83011261118757600080fd5b81516111978482602086016110f5565b91505092915050565b6000815190506111af81611e82565b92915050565b6000815190506111c481611e99565b92915050565b6000813590506111d981611eb0565b92915050565b6000815190506111ee81611eb0565b92915050565b60008151905061120381611ec7565b92915050565b600080600080600080600080610100898b03121561122657600080fd5b60006112348b828c01611161565b98505060206112458b828c01611161565b97505060406112568b828c016111ca565b96505060606112678b828c016111ca565b95505060806112788b828c016111ca565b94505060a06112898b828c016111ca565b93505060c061129a8b828c01611161565b92505060e06112ab8b828c016111ca565b9150509295985092959890939650565b6000602082840312156112cd57600080fd5b600082015167ffffffffffffffff8111156112e757600080fd5b6112f384828501611176565b91505092915050565b60006020828403121561130e57600080fd5b600061131c848285016111a0565b91505092915050565b60008060006060848603121561133a57600080fd5b6000611348868287016111b5565b9350506020611359868287016111b5565b925050604061136a868287016111f4565b9150509250925092565b6000611380838361138c565b60208301905092915050565b61139581611cbe565b82525050565b6113a481611cbe565b82525050565b6113bb6113b682611cbe565b611da3565b82525050565b60006113cc82611b4e565b6113d68185611b71565b93506113e183611b3e565b8060005b838110156114125781516113f98882611374565b975061140483611b64565b9250506001810190506113e5565b5085935050505092915050565b61143061142b82611cdc565b611db5565b82525050565b600061144182611b59565b61144b8185611b82565b935061145b818560208601611d70565b80840191505092915050565b61147081611d3a565b82525050565b61147f81611d5e565b82525050565b6000611492601583611b8d565b91507f64732d6d6174682d7375622d756e646572666c6f7700000000000000000000006000830152602082019050919050565b60006114d2601e83611b8d565b91507f4578616d706c6553776170546f50726963653a205a45524f5f5350454e4400006000830152602082019050919050565b6000611512602083611b9e565b91507ffbb84ef4af8cf5272eb5a70962628544cc9380d749144bf57095f3769a804d956000830152602082019050919050565b6000611552601483611b8d565b91507f64732d6d6174682d6d756c2d6f766572666c6f770000000000000000000000006000830152602082019050919050565b6000611592601e83611b8d565b91507f4578616d706c6553776170546f50726963653a205a45524f5f505249434500006000830152602082019050919050565b60006115d2603183611b8d565b91507f5472616e7366657248656c7065723a3a7472616e7366657246726f6d3a20747260008301527f616e7366657246726f6d206661696c65640000000000000000000000000000006020830152604082019050919050565b6000611638602583611b8d565b91507f556e697377617056324c6962726172793a204944454e544943414c5f4144445260008301527f45535345530000000000000000000000000000000000000000000000000000006020830152604082019050919050565b600061169e600183611b9e565b91507fff000000000000000000000000000000000000000000000000000000000000006000830152600182019050919050565b60006116de601a83611b8d565b91507f46756c6c4d6174683a2046554c4c4449565f4f564552464c4f570000000000006000830152602082019050919050565b600061171e602b83611b8d565b91507f5472616e7366657248656c7065723a3a73616665417070726f76653a2061707060008301527f726f7665206661696c65640000000000000000000000000000000000000000006020830152604082019050919050565b6000611784601e83611b8d565b91507f556e697377617056324c6962726172793a205a45524f5f4144445245535300006000830152602082019050919050565b60006117c4602283611b8d565b91507f4578616d706c6553776170546f50726963653a205a45524f5f414d4f554e545f60008301527f494e0000000000000000000000000000000000000000000000000000000000006020830152604082019050919050565b61182681611d20565b82525050565b600061183882856113aa565b60148201915061184882846113aa565b6014820191508190509392505050565b60006118648284611436565b915081905092915050565b600061187a82611691565b915061188682856113aa565b601482019150611896828461141f565b6020820191506118a582611505565b91508190509392505050565b60006020820190506118c6600083018461139b565b92915050565b60006060820190506118e1600083018661139b565b6118ee602083018561139b565b6118fb604083018461181d565b949350505050565b6000604082019050611918600083018561139b565b611925602083018461181d565b9392505050565b60006020820190506119416000830184611467565b92915050565b6000602082019050818103600083015261196081611485565b9050919050565b60006020820190508181036000830152611980816114c5565b9050919050565b600060208201905081810360008301526119a081611545565b9050919050565b600060208201905081810360008301526119c081611585565b9050919050565b600060208201905081810360008301526119e0816115c5565b9050919050565b60006020820190508181036000830152611a008161162b565b9050919050565b60006020820190508181036000830152611a20816116d1565b9050919050565b60006020820190508181036000830152611a4081611711565b9050919050565b60006020820190508181036000830152611a6081611777565b9050919050565b60006020820190508181036000830152611a80816117b7565b9050919050565b600060a082019050611a9c600083018861181d565b611aa96020830187611476565b8181036040830152611abb81866113c1565b9050611aca606083018561139b565b611ad7608083018461181d565b9695505050505050565b6000604051905081810181811067ffffffffffffffff82111715611b0857611b07611e2f565b5b8060405250919050565b600067ffffffffffffffff821115611b2d57611b2c611e2f565b5b602082029050602081019050919050565b6000819050602082019050919050565b600081519050919050565b600081519050919050565b6000602082019050919050565b600082825260208201905092915050565b600081905092915050565b600082825260208201905092915050565b600081905092915050565b6000611bb482611d20565b9150611bbf83611d20565b9250827fffffffffffffffffffffffffffffffffffffffffffffffffffffffffffffffff03821115611bf457611bf3611dd1565b5b828201905092915050565b6000611c0a82611d20565b9150611c1583611d20565b925082611c2557611c24611e00565b5b828204905092915050565b6000611c3b82611d20565b9150611c4683611d20565b9250817fffffffffffffffffffffffffffffffffffffffffffffffffffffffffffffffff0483118215151615611c7f57611c7e611dd1565b5b828202905092915050565b6000611c9582611d20565b9150611ca083611d20565b925082821015611cb357611cb2611dd1565b5b828203905092915050565b6000611cc982611d00565b9050919050565b60008115159050919050565b6000819050919050565b60006dffffffffffffffffffffffffffff82169050919050565b600073ffffffffffffffffffffffffffffffffffffffff82169050919050565b6000819050919050565b600063ffffffff82169050919050565b6000611d4582611d4c565b9050919050565b6000611d5782611d00565b9050919050565b6000611d6982611d20565b9050919050565b60005b83811015611d8e578082015181840152602081019050611d73565b83811115611d9d576000848401525b50505050565b6000611dae82611dbf565b9050919050565b6000819050919050565b6000611dca82611e5e565b9050919050565b7f4e487b7100000000000000000000000000000000000000000000000000000000600052601160045260246000fd5b7f4e487b7100000000000000000000000000000000000000000000000000000000600052601260045260246000fd5b7f4e487b7100000000000000000000000000000000000000000000000000000000600052604160045260246000fd5b60008160601b9050919050565b611e7481611cbe565b8114611e7f57600080fd5b50565b611e8b81611cd0565b8114611e9657600080fd5b50565b611ea281611ce6565b8114611ead57600080fd5b50565b611eb981611d20565b8114611ec457600080fd5b50565b611ed081611d2a565b8114611edb57600080fd5b5056fea2646970667358221220f4dd052855ca1fde694b77cdfc81535fffd3e9dacb02c910650f988c298c5e6864736f6c63430008000033",
  "linkReferences": {},
  "deployedLinkReferences": {}
}