{
  "_format": "hh-sol-artifact-1",
  "contractName": "ExampleSlidingWindowOracle",
  "sourceName": "contracts/examples/ExampleSlidingWindowOracle.sol",
  "abi": [
    {
      "inputs": [
        {
          "internalType": "address",
          "name": "factory_",
          "type": "address"
        },
        {
          "internalType": "uint256",
          "name": "windowSize_",
          "type": "uint256"
        },
        {
          "internalType": "uint8",
          "name": "granularity_",
          "type": "uint8"
        }
      ],
      "stateMutability": "nonpayable",
      "type": "constructor"
    },
    {
      "inputs": [
        {
          "internalType": "address",
          "name": "tokenIn",
          "type": "address"
        },
        {
          "internalType": "uint256",
          "name": "amountIn",
          "type": "uint256"
        },
        {
          "internalType": "address",
          "name": "tokenOut",
          "type": "address"
        }
      ],
      "name": "consult",
      "outputs": [
        {
          "internalType": "uint256",
          "name": "amountOut",
          "type": "uint256"
        }
      ],
      "stateMutability": "view",
      "type": "function"
    },
    {
      "inputs": [],
      "name": "factory",
      "outputs": [
        {
          "internalType": "address",
          "name": "",
          "type": "address"
        }
      ],
      "stateMutability": "view",
      "type": "function"
    },
    {
      "inputs": [],
      "name": "granularity",
      "outputs": [
        {
          "internalType": "uint8",
          "name": "",
          "type": "uint8"
        }
      ],
      "stateMutability": "view",
      "type": "function"
    },
    {
      "inputs": [
        {
          "internalType": "uint256",
          "name": "timestamp",
          "type": "uint256"
        }
      ],
      "name": "observationIndexOf",
      "outputs": [
        {
          "internalType": "uint8",
          "name": "index",
          "type": "uint8"
        }
      ],
      "stateMutability": "view",
      "type": "function"
    },
    {
      "inputs": [
        {
          "internalType": "address",
          "name": "",
          "type": "address"
        },
        {
          "internalType": "uint256",
          "name": "",
          "type": "uint256"
        }
      ],
      "name": "pairObservations",
      "outputs": [
        {
          "internalType": "uint256",
          "name": "timestamp",
          "type": "uint256"
        },
        {
          "internalType": "uint256",
          "name": "price0Cumulative",
          "type": "uint256"
        },
        {
          "internalType": "uint256",
          "name": "price1Cumulative",
          "type": "uint256"
        }
      ],
      "stateMutability": "view",
      "type": "function"
    },
    {
      "inputs": [],
      "name": "periodSize",
      "outputs": [
        {
          "internalType": "uint256",
          "name": "",
          "type": "uint256"
        }
      ],
      "stateMutability": "view",
      "type": "function"
    },
    {
      "inputs": [
        {
          "internalType": "address",
          "name": "tokenA",
          "type": "address"
        },
        {
          "internalType": "address",
          "name": "tokenB",
          "type": "address"
        }
      ],
      "name": "update",
      "outputs": [],
      "stateMutability": "nonpayable",
      "type": "function"
    },
    {
      "inputs": [],
      "name": "windowSize",
      "outputs": [
        {
          "internalType": "uint256",
          "name": "",
          "type": "uint256"
        }
      ],
      "stateMutability": "view",
      "type": "function"
    }
  ],
  "bytecode": "0x6101006040523480156200001257600080fd5b506040516200237d3803806200237d83398181016040528101906200003891906200018a565b60018160ff161162000081576040517f08c379a00000000000000000000000000000000000000000000000000000000081526004016200007890620002ac565b60405180910390fd5b818160ff168260ff1684620000979190620002df565b60e081815250620000a9919062000317565b14620000ec576040517f08c379a0000000000000000000000000000000000000000000000000000000008152600401620000e3906200028a565b60405180910390fd5b8273ffffffffffffffffffffffffffffffffffffffff1660808173ffffffffffffffffffffffffffffffffffffffff1660601b815250508160a081815250508060ff1660c08160ff1660f81b815250505050506200046f565b600081519050620001568162000421565b92915050565b6000815190506200016d816200043b565b92915050565b600081519050620001848162000455565b92915050565b600080600060608486031215620001a057600080fd5b6000620001b08682870162000145565b9350506020620001c3868287016200015c565b9250506040620001d68682870162000173565b9150509250925092565b6000620001ef603083620002ce565b91507f536c6964696e6757696e646f774f7261636c653a2057494e444f575f4e4f545f60008301527f4556454e4c595f444956495349424c45000000000000000000000000000000006020830152604082019050919050565b600062000257602083620002ce565b91507f536c6964696e6757696e646f774f7261636c653a204752414e554c41524954596000830152602082019050919050565b60006020820190508181036000830152620002a581620001e0565b9050919050565b60006020820190508181036000830152620002c78162000248565b9050919050565b600082825260208201905092915050565b6000620002ec82620003ac565b9150620002f983620003ac565b9250826200030c576200030b620003f2565b5b828204905092915050565b60006200032482620003ac565b91506200033183620003ac565b9250817fffffffffffffffffffffffffffffffffffffffffffffffffffffffffffffffff04831182151516156200036d576200036c620003c3565b5b828202905092915050565b600062000385826200038c565b9050919050565b600073ffffffffffffffffffffffffffffffffffffffff82169050919050565b6000819050919050565b600060ff82169050919050565b7f4e487b7100000000000000000000000000000000000000000000000000000000600052601160045260246000fd5b7f4e487b7100000000000000000000000000000000000000000000000000000000600052601260045260246000fd5b6200042c8162000378565b81146200043857600080fd5b50565b6200044681620003ac565b81146200045257600080fd5b50565b6200046081620003b6565b81146200046c57600080fd5b50565b60805160601c60a05160c05160f81c60e051611e88620004f5600039600081816102b3015281816106020152818161066401526106c90152600081816101b5015281816104bd01528181610692015261076f0152600081816101d90152818161024e01526102de01526000818161020301528181610423015261044c0152611e886000f3fe608060405234801561001057600080fd5b50600436106100885760003560e01c8063c45a01551161005b578063c45a01551461012b578063c640752d14610149578063dbaad32f14610165578063e4463eb21461019557610088565b8063556f0dc71461008d5780638a14117a146100ab5780638c86f1e4146100c9578063bfcc8e42146100f9575b600080fd5b6100956101b3565b6040516100a29190611a7e565b60405180910390f35b6100b36101d7565b6040516100c09190611a2c565b60405180910390f35b6100e360048036038101906100de9190611440565b6101fb565b6040516100f09190611a2c565b60405180910390f35b610113600480360381019061010e9190611404565b6103da565b60405161012293929190611a47565b60405180910390f35b610133610421565b6040516101409190611911565b60405180910390f35b610163600480360381019061015e91906113c8565b610445565b005b61017f600480360381019061017a91906114de565b61065f565b60405161018c9190611a7e565b60405180910390f35b61019d6106c7565b6040516101aa9190611a2c565b60405180910390f35b7f000000000000000000000000000000000000000000000000000000000000000081565b7f000000000000000000000000000000000000000000000000000000000000000081565b6000806102297f000000000000000000000000000000000000000000000000000000000000000086856106eb565b905060006102368261075d565b9050600081600001544261024a9190611bcd565b90507f00000000000000000000000000000000000000000000000000000000000000008111156102af576040517f08c379a00000000000000000000000000000000000000000000000000000000081526004016102a69061192c565b60405180910390fd5b60027f00000000000000000000000000000000000000000000000000000000000000006102dc9190611b73565b7f00000000000000000000000000000000000000000000000000000000000000006103079190611bcd565b811015610349576040517f08c379a00000000000000000000000000000000000000000000000000000000081526004016103409061194c565b60405180910390fd5b60008061035585610837565b509150915060006103668a89610ad2565b5090508973ffffffffffffffffffffffffffffffffffffffff168173ffffffffffffffffffffffffffffffffffffffff1614156103ba576103ad856001015484868c610c00565b96505050505050506103d3565b6103ca856002015483868c610c00565b96505050505050505b9392505050565b600060205281600052604060002081815481106103f657600080fd5b9060005260206000209060030201600091509150508060000154908060010154908060020154905083565b7f000000000000000000000000000000000000000000000000000000000000000081565b60006104727f000000000000000000000000000000000000000000000000000000000000000084846106eb565b905060008060008373ffffffffffffffffffffffffffffffffffffffff1673ffffffffffffffffffffffffffffffffffffffff1681526020019081526020016000208054905090505b7f000000000000000000000000000000000000000000000000000000000000000060ff16811015610553576000808373ffffffffffffffffffffffffffffffffffffffff1673ffffffffffffffffffffffffffffffffffffffff16815260200190815260200160002060018160018154018082558091505003906000526020600020905050808061054b90611cb2565b9150506104bb565b50600061055f4261065f565b905060008060008473ffffffffffffffffffffffffffffffffffffffff1673ffffffffffffffffffffffffffffffffffffffff1681526020019081526020016000208260ff16815481106105dc577f4e487b7100000000000000000000000000000000000000000000000000000000600052603260045260246000fd5b9060005260206000209060030201905060008160000154426105fe9190611bcd565b90507f00000000000000000000000000000000000000000000000000000000000000008111156106575760008061063486610837565b509150915042846000018190555081846001018190555080846002018190555050505b505050505050565b6000807f00000000000000000000000000000000000000000000000000000000000000008361068e9190611b42565b90507f000000000000000000000000000000000000000000000000000000000000000060ff16816106bf9190611d29565b915050919050565b7f000000000000000000000000000000000000000000000000000000000000000081565b60008060006106fa8585610ad2565b915091508582826040516020016107129291906118a3565b604051602081830303815290604052805190602001206040516020016107399291906118cf565b6040516020818303038152906040528051906020012060001c925050509392505050565b6000806107694261065f565b905060007f000000000000000000000000000000000000000000000000000000000000000060018361079b9190611b0b565b6107a59190611d5a565b90506000808573ffffffffffffffffffffffffffffffffffffffff1673ffffffffffffffffffffffffffffffffffffffff1681526020019081526020016000208160ff1681548110610820577f4e487b7100000000000000000000000000000000000000000000000000000000600052603260045260246000fd5b906000526020600020906003020192505050919050565b6000806000610844610c82565b90508373ffffffffffffffffffffffffffffffffffffffff16635909c0d56040518163ffffffff1660e01b815260040160206040518083038186803b15801561088c57600080fd5b505afa1580156108a0573d6000803e3d6000fd5b505050506040513d601f19601f820116820180604052508101906108c49190611507565b92508373ffffffffffffffffffffffffffffffffffffffff16635a3d54936040518163ffffffff1660e01b815260040160206040518083038186803b15801561090c57600080fd5b505afa158015610920573d6000803e3d6000fd5b505050506040513d601f19601f820116820180604052508101906109449190611507565b915060008060008673ffffffffffffffffffffffffffffffffffffffff16630902f1ac6040518163ffffffff1660e01b815260040160606040518083038186803b15801561099157600080fd5b505afa1580156109a5573d6000803e3d6000fd5b505050506040513d601f19601f820116820180604052508101906109c9919061148f565b9250925092508363ffffffff168163ffffffff1614610ac857600081856109f09190611c01565b90508063ffffffff16610a23846dffffffffffffffffffffffffffff16866dffffffffffffffffffffffffffff16610c9a565b600001517bffffffffffffffffffffffffffffffffffffffffffffffffffffffff16610a4f9190611b73565b87610a5a9190611ab5565b96508063ffffffff16610a8d856dffffffffffffffffffffffffffff16856dffffffffffffffffffffffffffff16610c9a565b600001517bffffffffffffffffffffffffffffffffffffffffffffffffffffffff16610ab99190611b73565b86610ac49190611ab5565b9550505b5050509193909250565b6000808273ffffffffffffffffffffffffffffffffffffffff168473ffffffffffffffffffffffffffffffffffffffff161415610b44576040517f08c379a0000000000000000000000000000000000000000000000000000000008152600401610b3b9061198c565b60405180910390fd5b8273ffffffffffffffffffffffffffffffffffffffff168473ffffffffffffffffffffffffffffffffffffffff1610610b7e578284610b81565b83835b8092508193505050600073ffffffffffffffffffffffffffffffffffffffff168273ffffffffffffffffffffffffffffffffffffffff161415610bf9576040517f08c379a0000000000000000000000000000000000000000000000000000000008152600401610bf090611a0c565b60405180910390fd5b9250929050565b6000806040518060200160405280858888610c1b9190611bcd565b610c259190611b42565b7bffffffffffffffffffffffffffffffffffffffffffffffffffffffff168152509050610c63610c5e8483610eab90919063ffffffff16565b610f76565b71ffffffffffffffffffffffffffffffffffff16915050949350505050565b600064010000000042610c959190611d29565b905090565b610ca261131b565b60008211610ce5576040517f08c379a0000000000000000000000000000000000000000000000000000000008152600401610cdc906119ac565b60405180910390fd5b6000831415610d2357604051806020016040528060007bffffffffffffffffffffffffffffffffffffffffffffffffffffffff168152509050610ea5565b7bffffffffffffffffffffffffffffffffffffffffffffffffffffffff80168311610df557600082607060ff1685901b610d5d9190611b42565b90507bffffffffffffffffffffffffffffffffffffffffffffffffffffffff8016811115610dc0576040517f08c379a0000000000000000000000000000000000000000000000000000000008152600401610db7906119ec565b60405180910390fd5b6040518060200160405280827bffffffffffffffffffffffffffffffffffffffffffffffffffffffff16815250915050610ea5565b6000610e11846e01000000000000000000000000000085610f8b565b90507bffffffffffffffffffffffffffffffffffffffffffffffffffffffff8016811115610e74576040517f08c379a0000000000000000000000000000000000000000000000000000000008152600401610e6b906119ec565b60405180910390fd5b6040518060200160405280827bffffffffffffffffffffffffffffffffffffffffffffffffffffffff168152509150505b92915050565b610eb361134c565b600080831480610f1f575083600001517bffffffffffffffffffffffffffffffffffffffffffffffffffffffff16838486600001517bffffffffffffffffffffffffffffffffffffffffffffffffffffffff16610f109190611b73565b925082610f1d9190611b42565b145b610f5e576040517f08c379a0000000000000000000000000000000000000000000000000000000008152600401610f559061196c565b60405180910390fd5b60405180602001604052808281525091505092915050565b6000607060ff168260000151901c9050919050565b6000806000610f9a8686611079565b9150915060008480610fd5577f4e487b7100000000000000000000000000000000000000000000000000000000600052601260045260246000fd5b868809905082811115610ff257600182610fef9190611bcd565b91505b8083610ffe9190611bcd565b9250600082141561101f5784836110159190611b42565b9350505050611072565b848210611061576040517f08c379a0000000000000000000000000000000000000000000000000000000008152600401611058906119cc565b60405180910390fd5b61106c838387611114565b93505050505b9392505050565b60008060007fffffffffffffffffffffffffffffffffffffffffffffffffffffffffffffffff806110d3577f4e487b7100000000000000000000000000000000000000000000000000000000600052601260045260246000fd5b848609905083856110e49190611b73565b925082816110f29190611bcd565b91508281101561110c576001826111099190611bcd565b91505b509250929050565b600080826001847fffffffffffffffffffffffffffffffffffffffffffffffffffffffffffffffff6111469190611bcd565b6111509190611ab5565b169050808361115f9190611b42565b9250808561116d9190611b42565b94506001816001837fffffffffffffffffffffffffffffffffffffffffffffffffffffffffffffffff6111a09190611bcd565b6111aa9190611ab5565b6111b49190611b42565b6111be9190611ab5565b846111c99190611b73565b856111d49190611ab5565b945060006001905080846111e89190611b73565b60026111f49190611bcd565b816111ff9190611b73565b9050808461120d9190611b73565b60026112199190611bcd565b816112249190611b73565b905080846112329190611b73565b600261123e9190611bcd565b816112499190611b73565b905080846112579190611b73565b60026112639190611bcd565b8161126e9190611b73565b9050808461127c9190611b73565b60026112889190611bcd565b816112939190611b73565b905080846112a19190611b73565b60026112ad9190611bcd565b816112b89190611b73565b905080846112c69190611b73565b60026112d29190611bcd565b816112dd9190611b73565b905080846112eb9190611b73565b60026112f79190611bcd565b816113029190611b73565b905080866113109190611b73565b925050509392505050565b604051806020016040528060007bffffffffffffffffffffffffffffffffffffffffffffffffffffffff1681525090565b6040518060200160405280600081525090565b60008135905061136e81611df6565b92915050565b60008151905061138381611e0d565b92915050565b60008135905061139881611e24565b92915050565b6000815190506113ad81611e24565b92915050565b6000815190506113c281611e3b565b92915050565b600080604083850312156113db57600080fd5b60006113e98582860161135f565b92505060206113fa8582860161135f565b9150509250929050565b6000806040838503121561141757600080fd5b60006114258582860161135f565b925050602061143685828601611389565b9150509250929050565b60008060006060848603121561145557600080fd5b60006114638682870161135f565b935050602061147486828701611389565b92505060406114858682870161135f565b9150509250925092565b6000806000606084860312156114a457600080fd5b60006114b286828701611374565b93505060206114c386828701611374565b92505060406114d4868287016113b3565b9150509250925092565b6000602082840312156114f057600080fd5b60006114fe84828501611389565b91505092915050565b60006020828403121561151957600080fd5b60006115278482850161139e565b91505092915050565b61153981611c35565b82525050565b61155061154b82611c35565b611cfb565b82525050565b61156761156282611c47565b611d0d565b82525050565b600061157a602083611aaa565b91507ffbb84ef4af8cf5272eb5a70962628544cc9380d749144bf57095f3769a804d956000830152602082019050919050565b60006115ba603383611a99565b91507f536c6964696e6757696e646f774f7261636c653a204d495353494e475f48495360008301527f544f524943414c5f4f42534552564154494f4e000000000000000000000000006020830152604082019050919050565b6000611620602c83611a99565b91507f536c6964696e6757696e646f774f7261636c653a20554e45585045435445445f60008301527f54494d455f454c415053454400000000000000000000000000000000000000006020830152604082019050919050565b6000611686601983611a99565b91507f4669786564506f696e743a3a6d756c3a206f766572666c6f77000000000000006000830152602082019050919050565b60006116c6602583611a99565b91507f556e697377617056324c6962726172793a204944454e544943414c5f4144445260008301527f45535345530000000000000000000000000000000000000000000000000000006020830152604082019050919050565b600061172c602683611a99565b91507f4669786564506f696e743a3a6672616374696f6e3a206469766973696f6e206260008301527f79207a65726f00000000000000000000000000000000000000000000000000006020830152604082019050919050565b6000611792600183611aaa565b91507fff000000000000000000000000000000000000000000000000000000000000006000830152600182019050919050565b60006117d2601a83611a99565b91507f46756c6c4d6174683a2046554c4c4449565f4f564552464c4f570000000000006000830152602082019050919050565b6000611812601e83611a99565b91507f4669786564506f696e743a3a6672616374696f6e3a206f766572666c6f7700006000830152602082019050919050565b6000611852601e83611a99565b91507f556e697377617056324c6962726172793a205a45524f5f4144445245535300006000830152602082019050919050565b61188e81611c8b565b82525050565b61189d81611ca5565b82525050565b60006118af828561153f565b6014820191506118bf828461153f565b6014820191508190509392505050565b60006118da82611785565b91506118e6828561153f565b6014820191506118f68284611556565b6020820191506119058261156d565b91508190509392505050565b60006020820190506119266000830184611530565b92915050565b60006020820190508181036000830152611945816115ad565b9050919050565b6000602082019050818103600083015261196581611613565b9050919050565b6000602082019050818103600083015261198581611679565b9050919050565b600060208201905081810360008301526119a5816116b9565b9050919050565b600060208201905081810360008301526119c58161171f565b9050919050565b600060208201905081810360008301526119e5816117c5565b9050919050565b60006020820190508181036000830152611a0581611805565b9050919050565b60006020820190508181036000830152611a2581611845565b9050919050565b6000602082019050611a416000830184611885565b92915050565b6000606082019050611a5c6000830186611885565b611a696020830185611885565b611a766040830184611885565b949350505050565b6000602082019050611a936000830184611894565b92915050565b600082825260208201905092915050565b600081905092915050565b6000611ac082611c8b565b9150611acb83611c8b565b9250827fffffffffffffffffffffffffffffffffffffffffffffffffffffffffffffffff03821115611b0057611aff611d8b565b5b828201905092915050565b6000611b1682611ca5565b9150611b2183611ca5565b92508260ff03821115611b3757611b36611d8b565b5b828201905092915050565b6000611b4d82611c8b565b9150611b5883611c8b565b925082611b6857611b67611dba565b5b828204905092915050565b6000611b7e82611c8b565b9150611b8983611c8b565b9250817fffffffffffffffffffffffffffffffffffffffffffffffffffffffffffffffff0483118215151615611bc257611bc1611d8b565b5b828202905092915050565b6000611bd882611c8b565b9150611be383611c8b565b925082821015611bf657611bf5611d8b565b5b828203905092915050565b6000611c0c82611c95565b9150611c1783611c95565b925082821015611c2a57611c29611d8b565b5b828203905092915050565b6000611c4082611c6b565b9050919050565b6000819050919050565b60006dffffffffffffffffffffffffffff82169050919050565b600073ffffffffffffffffffffffffffffffffffffffff82169050919050565b6000819050919050565b600063ffffffff82169050919050565b600060ff82169050919050565b6000611cbd82611c8b565b91507fffffffffffffffffffffffffffffffffffffffffffffffffffffffffffffffff821415611cf057611cef611d8b565b5b600182019050919050565b6000611d0682611d17565b9050919050565b6000819050919050565b6000611d2282611de9565b9050919050565b6000611d3482611c8b565b9150611d3f83611c8b565b925082611d4f57611d4e611dba565b5b828206905092915050565b6000611d6582611ca5565b9150611d7083611ca5565b925082611d8057611d7f611dba565b5b828206905092915050565b7f4e487b7100000000000000000000000000000000000000000000000000000000600052601160045260246000fd5b7f4e487b7100000000000000000000000000000000000000000000000000000000600052601260045260246000fd5b60008160601b9050919050565b611dff81611c35565b8114611e0a57600080fd5b50565b611e1681611c51565b8114611e2157600080fd5b50565b611e2d81611c8b565b8114611e3857600080fd5b50565b611e4481611c95565b8114611e4f57600080fd5b5056fea26469706673582212206bd8558c2c1e13a0347535e721e4dd62fc0ac04645adc13550a53a0dcbecc68c64736f6c63430008000033",
  "linkReferences": {},
  "deployedLinkReferences": {}
}