{
  "_format": "hh-sol-artifact-1",
  "contractName": "RouterEventEmitter",
  "sourceName": "contracts/test/RouterEventEmitter.sol",
  "abi": [
    {
      "anonymous": false,
      "inputs": [
        {
          "indexed": false,
          "internalType": "uint256[]",
          "name": "amounts",
          "type": "uint256[]"
        }
      ],
      "name": "Amounts",
      "type": "event"
    },
    {
      "inputs": [
        {
          "internalType": "address",
          "name": "router",
          "type": "address"
        },
        {
          "internalType": "uint256",
          "name": "amountOut",
          "type": "uint256"
        },
        {
          "internalType": "address[]",
          "name": "path",
          "type": "address[]"
        },
        {
          "internalType": "address",
          "name": "to",
          "type": "address"
        },
        {
          "internalType": "uint256",
          "name": "deadline",
          "type": "uint256"
        }
      ],
      "name": "swapETHForExactTokens",
      "outputs": [],
      "stateMutability": "payable",
      "type": "function"
    },
    {
      "inputs": [
        {
          "internalType": "address",
          "name": "router",
          "type": "address"
        },
        {
          "internalType": "uint256",
          "name": "amountOutMin",
          "type": "uint256"
        },
        {
          "internalType": "address[]",
          "name": "path",
          "type": "address[]"
        },
        {
          "internalType": "address",
          "name": "to",
          "type": "address"
        },
        {
          "internalType": "uint256",
          "name": "deadline",
          "type": "uint256"
        }
      ],
      "name": "swapExactETHForTokens",
      "outputs": [],
      "stateMutability": "payable",
      "type": "function"
    },
    {
      "inputs": [
        {
          "internalType": "address",
          "name": "router",
          "type": "address"
        },
        {
          "internalType": "uint256",
          "name": "amountIn",
          "type": "uint256"
        },
        {
          "internalType": "uint256",
          "name": "amountOutMin",
          "type": "uint256"
        },
        {
          "internalType": "address[]",
          "name": "path",
          "type": "address[]"
        },
        {
          "internalType": "address",
          "name": "to",
          "type": "address"
        },
        {
          "internalType": "uint256",
          "name": "deadline",
          "type": "uint256"
        }
      ],
      "name": "swapExactTokensForETH",
      "outputs": [],
      "stateMutability": "nonpayable",
      "type": "function"
    },
    {
      "inputs": [
        {
          "internalType": "address",
          "name": "router",
          "type": "address"
        },
        {
          "internalType": "uint256",
          "name": "amountIn",
          "type": "uint256"
        },
        {
          "internalType": "uint256",
          "name": "amountOutMin",
          "type": "uint256"
        },
        {
          "internalType": "address[]",
          "name": "path",
          "type": "address[]"
        },
        {
          "internalType": "address",
          "name": "to",
          "type": "address"
        },
        {
          "internalType": "uint256",
          "name": "deadline",
          "type": "uint256"
        }
      ],
      "name": "swapExactTokensForTokens",
      "outputs": [],
      "stateMutability": "nonpayable",
      "type": "function"
    },
    {
      "inputs": [
        {
          "internalType": "address",
          "name": "router",
          "type": "address"
        },
        {
          "internalType": "uint256",
          "name": "amountOut",
          "type": "uint256"
        },
        {
          "internalType": "uint256",
          "name": "amountInMax",
          "type": "uint256"
        },
        {
          "internalType": "address[]",
          "name": "path",
          "type": "address[]"
        },
        {
          "internalType": "address",
          "name": "to",
          "type": "address"
        },
        {
          "internalType": "uint256",
          "name": "deadline",
          "type": "uint256"
        }
      ],
      "name": "swapTokensForExactETH",
      "outputs": [],
      "stateMutability": "nonpayable",
      "type": "function"
    },
    {
      "inputs": [
        {
          "internalType": "address",
          "name": "router",
          "type": "address"
        },
        {
          "internalType": "uint256",
          "name": "amountOut",
          "type": "uint256"
        },
        {
          "internalType": "uint256",
          "name": "amountInMax",
          "type": "uint256"
        },
        {
          "internalType": "address[]",
          "name": "path",
          "type": "address[]"
        },
        {
          "internalType": "address",
          "name": "to",
          "type": "address"
        },
        {
          "internalType": "uint256",
          "name": "deadline",
          "type": "uint256"
        }
      ],
      "name": "swapTokensForExactTokens",
      "outputs": [],
      "stateMutability": "nonpayable",
      "type": "function"
    },
    {
      "stateMutability": "payable",
      "type": "receive"
    }
  ],
  "bytecode": "0x608060405234801561001057600080fd5b506110ba806100206000396000f3fe6080604052600436106100595760003560e01c806322b5841014610065578063375734d91461008e5780639c91fcb5146100b7578063b05f579e146100e0578063fa3219d5146100fc578063fde1adda1461012557610060565b3661006057005b600080fd5b34801561007157600080fd5b5061008c60048036038101906100879190610baa565b610141565b005b34801561009a57600080fd5b506100b560048036038101906100b09190610baa565b6102b6565b005b3480156100c357600080fd5b506100de60048036038101906100d99190610baa565b61042b565b005b6100fa60048036038101906100f59190610b18565b6105a0565b005b34801561010857600080fd5b50610123600480360381019061011e9190610baa565b610712565b005b61013f600480360381019061013a9190610b18565b610887565b005b6000808873ffffffffffffffffffffffffffffffffffffffff16638803dbee60e01b89898989898960405160240161017e96959493929190610e71565b604051602081830303815290604052907bffffffffffffffffffffffffffffffffffffffffffffffffffffffff19166020820180517bffffffffffffffffffffffffffffffffffffffffffffffffffffffff83818316178352505050506040516101e89190610dea565b600060405180830381855af49150503d8060008114610223576040519150601f19603f3d011682016040523d82523d6000602084013e610228565b606091505b509150915081610261577f4e487b7100000000000000000000000000000000000000000000000000000000600052600160045260246000fd5b7f4cc17991e3610e3400e74a8306aa421daaee1e3446fa22b490604610999e10b3818060200190518101906102969190610c51565b6040516102a39190610e01565b60405180910390a1505050505050505050565b6000808873ffffffffffffffffffffffffffffffffffffffff166338ed173960e01b8989898989896040516024016102f396959493929190610e71565b604051602081830303815290604052907bffffffffffffffffffffffffffffffffffffffffffffffffffffffff19166020820180517bffffffffffffffffffffffffffffffffffffffffffffffffffffffff838183161783525050505060405161035d9190610dea565b600060405180830381855af49150503d8060008114610398576040519150601f19603f3d011682016040523d82523d6000602084013e61039d565b606091505b5091509150816103d6577f4e487b7100000000000000000000000000000000000000000000000000000000600052600160045260246000fd5b7f4cc17991e3610e3400e74a8306aa421daaee1e3446fa22b490604610999e10b38180602001905181019061040b9190610c51565b6040516104189190610e01565b60405180910390a1505050505050505050565b6000808873ffffffffffffffffffffffffffffffffffffffff166318cbafe560e01b89898989898960405160240161046896959493929190610e71565b604051602081830303815290604052907bffffffffffffffffffffffffffffffffffffffffffffffffffffffff19166020820180517bffffffffffffffffffffffffffffffffffffffffffffffffffffffff83818316178352505050506040516104d29190610dea565b600060405180830381855af49150503d806000811461050d576040519150601f19603f3d011682016040523d82523d6000602084013e610512565b606091505b50915091508161054b577f4e487b7100000000000000000000000000000000000000000000000000000000600052600160045260246000fd5b7f4cc17991e3610e3400e74a8306aa421daaee1e3446fa22b490604610999e10b3818060200190518101906105809190610c51565b60405161058d9190610e01565b60405180910390a1505050505050505050565b6000808773ffffffffffffffffffffffffffffffffffffffff1663fb3bdb4160e01b88888888886040516024016105db959493929190610e23565b604051602081830303815290604052907bffffffffffffffffffffffffffffffffffffffffffffffffffffffff19166020820180517bffffffffffffffffffffffffffffffffffffffffffffffffffffffff83818316178352505050506040516106459190610dea565b600060405180830381855af49150503d8060008114610680576040519150601f19603f3d011682016040523d82523d6000602084013e610685565b606091505b5091509150816106be577f4e487b7100000000000000000000000000000000000000000000000000000000600052600160045260246000fd5b7f4cc17991e3610e3400e74a8306aa421daaee1e3446fa22b490604610999e10b3818060200190518101906106f39190610c51565b6040516107009190610e01565b60405180910390a15050505050505050565b6000808873ffffffffffffffffffffffffffffffffffffffff16634a25d94a60e01b89898989898960405160240161074f96959493929190610e71565b604051602081830303815290604052907bffffffffffffffffffffffffffffffffffffffffffffffffffffffff19166020820180517bffffffffffffffffffffffffffffffffffffffffffffffffffffffff83818316178352505050506040516107b99190610dea565b600060405180830381855af49150503d80600081146107f4576040519150601f19603f3d011682016040523d82523d6000602084013e6107f9565b606091505b509150915081610832577f4e487b7100000000000000000000000000000000000000000000000000000000600052600160045260246000fd5b7f4cc17991e3610e3400e74a8306aa421daaee1e3446fa22b490604610999e10b3818060200190518101906108679190610c51565b6040516108749190610e01565b60405180910390a1505050505050505050565b6000808773ffffffffffffffffffffffffffffffffffffffff16637ff36ab560e01b88888888886040516024016108c2959493929190610e23565b604051602081830303815290604052907bffffffffffffffffffffffffffffffffffffffffffffffffffffffff19166020820180517bffffffffffffffffffffffffffffffffffffffffffffffffffffffff838183161783525050505060405161092c9190610dea565b600060405180830381855af49150503d8060008114610967576040519150601f19603f3d011682016040523d82523d6000602084013e61096c565b606091505b5091509150816109a5577f4e487b7100000000000000000000000000000000000000000000000000000000600052600160045260246000fd5b7f4cc17991e3610e3400e74a8306aa421daaee1e3446fa22b490604610999e10b3818060200190518101906109da9190610c51565b6040516109e79190610e01565b60405180910390a15050505050505050565b6000610a0c610a0784610efe565b610ecd565b90508083825260208201905082856020860282011115610a2b57600080fd5b60005b85811015610a5b5781610a418882610b03565b845260208401935060208301925050600181019050610a2e565b5050509392505050565b600081359050610a7481611056565b92915050565b60008083601f840112610a8c57600080fd5b8235905067ffffffffffffffff811115610aa557600080fd5b602083019150836020820283011115610abd57600080fd5b9250929050565b600082601f830112610ad557600080fd5b8151610ae58482602086016109f9565b91505092915050565b600081359050610afd8161106d565b92915050565b600081519050610b128161106d565b92915050565b60008060008060008060a08789031215610b3157600080fd5b6000610b3f89828a01610a65565b9650506020610b5089828a01610aee565b955050604087013567ffffffffffffffff811115610b6d57600080fd5b610b7989828a01610a7a565b94509450506060610b8c89828a01610a65565b9250506080610b9d89828a01610aee565b9150509295509295509295565b600080600080600080600060c0888a031215610bc557600080fd5b6000610bd38a828b01610a65565b9750506020610be48a828b01610aee565b9650506040610bf58a828b01610aee565b955050606088013567ffffffffffffffff811115610c1257600080fd5b610c1e8a828b01610a7a565b94509450506080610c318a828b01610a65565b92505060a0610c428a828b01610aee565b91505092959891949750929550565b600060208284031215610c6357600080fd5b600082015167ffffffffffffffff811115610c7d57600080fd5b610c8984828501610ac4565b91505092915050565b6000610c9e8383610cc2565b60208301905092915050565b6000610cb68383610dcc565b60208301905092915050565b610ccb81610fb8565b82525050565b610cda81610fb8565b82525050565b6000610cec8385610f74565b9350610cf782610f2a565b8060005b85811015610d3057610d0d8284610fa1565b610d178882610c92565b9750610d2283610f5a565b925050600181019050610cfb565b5085925050509392505050565b6000610d4882610f44565b610d528185610f85565b9350610d5d83610f34565b8060005b83811015610d8e578151610d758882610caa565b9750610d8083610f67565b925050600181019050610d61565b5085935050505092915050565b6000610da682610f4f565b610db08185610f96565b9350610dc0818560208601610ff4565b80840191505092915050565b610dd581610fea565b82525050565b610de481610fea565b82525050565b6000610df68284610d9b565b915081905092915050565b60006020820190508181036000830152610e1b8184610d3d565b905092915050565b6000608082019050610e386000830188610ddb565b8181036020830152610e4b818688610ce0565b9050610e5a6040830185610cd1565b610e676060830184610ddb565b9695505050505050565b600060a082019050610e866000830189610ddb565b610e936020830188610ddb565b8181036040830152610ea6818688610ce0565b9050610eb56060830185610cd1565b610ec26080830184610ddb565b979650505050505050565b6000604051905081810181811067ffffffffffffffff82111715610ef457610ef3611027565b5b8060405250919050565b600067ffffffffffffffff821115610f1957610f18611027565b5b602082029050602081019050919050565b6000819050919050565b6000819050602082019050919050565b600081519050919050565b600081519050919050565b6000602082019050919050565b6000602082019050919050565b600082825260208201905092915050565b600082825260208201905092915050565b600081905092915050565b6000610fb06020840184610a65565b905092915050565b6000610fc382610fca565b9050919050565b600073ffffffffffffffffffffffffffffffffffffffff82169050919050565b6000819050919050565b60005b83811015611012578082015181840152602081019050610ff7565b83811115611021576000848401525b50505050565b7f4e487b7100000000000000000000000000000000000000000000000000000000600052604160045260246000fd5b61105f81610fb8565b811461106a57600080fd5b50565b61107681610fea565b811461108157600080fd5b5056fea264697066735822122092eaa5c14f65178584cf1c6ec10739c49179890599e8e41f9b29bfcdc0c9c96864736f6c63430008000033",
  "linkReferences": {},
  "deployedLinkReferences": {}
}