{
  "_format": "hh-sol-artifact-1",
  "contractName": "UniswapV2Router02",
  "sourceName": "contracts/UniswapV2Router02.sol",
  "abi": [
    {
      "inputs": [
        {
          "internalType": "address",
          "name": "_factory",
          "type": "address"
        },
        {
          "internalType": "address",
          "name": "_WETH",
          "type": "address"
        }
      ],
      "stateMutability": "nonpayable",
      "type": "constructor"
    },
    {
      "inputs": [],
      "name": "WETH",
      "outputs": [
        {
          "internalType": "address",
          "name": "",
          "type": "address"
        }
      ],
      "stateMutability": "view",
      "type": "function"
    },
    {
      "inputs": [
        {
          "internalType": "address",
          "name": "tokenA",
          "type": "address"
        },
        {
          "internalType": "address",
          "name": "tokenB",
          "type": "address"
        },
        {
          "internalType": "uint256",
          "name": "amountADesired",
          "type": "uint256"
        },
        {
          "internalType": "uint256",
          "name": "amountBDesired",
          "type": "uint256"
        },
        {
          "internalType": "uint256",
          "name": "amountAMin",
          "type": "uint256"
        },
        {
          "internalType": "uint256",
          "name": "amountBMin",
          "type": "uint256"
        },
        {
          "internalType": "address",
          "name": "to",
          "type": "address"
        },
        {
          "internalType": "uint256",
          "name": "deadline",
          "type": "uint256"
        }
      ],
      "name": "addLiquidity",
      "outputs": [
        {
          "internalType": "uint256",
          "name": "amountA",
          "type": "uint256"
        },
        {
          "internalType": "uint256",
          "name": "amountB",
          "type": "uint256"
        },
        {
          "internalType": "uint256",
          "name": "liquidity",
          "type": "uint256"
        }
      ],
      "stateMutability": "nonpayable",
      "type": "function"
    },
    {
      "inputs": [
        {
          "internalType": "address",
          "name": "token",
          "type": "address"
        },
        {
          "internalType": "uint256",
          "name": "amountTokenDesired",
          "type": "uint256"
        },
        {
          "internalType": "uint256",
          "name": "amountTokenMin",
          "type": "uint256"
        },
        {
          "internalType": "uint256",
          "name": "amountETHMin",
          "type": "uint256"
        },
        {
          "internalType": "address",
          "name": "to",
          "type": "address"
        },
        {
          "internalType": "uint256",
          "name": "deadline",
          "type": "uint256"
        }
      ],
      "name": "addLiquidityETH",
      "outputs": [
        {
          "internalType": "uint256",
          "name": "amountToken",
          "type": "uint256"
        },
        {
          "internalType": "uint256",
          "name": "amountETH",
          "type": "uint256"
        },
        {
          "internalType": "uint256",
          "name": "liquidity",
          "type": "uint256"
        }
      ],
      "stateMutability": "payable",
      "type": "function"
    },
    {
      "inputs": [],
      "name": "factory",
      "outputs": [
        {
          "internalType": "address",
          "name": "",
          "type": "address"
        }
      ],
      "stateMutability": "view",
      "type": "function"
    },
    {
      "inputs": [
        {
          "internalType": "uint256",
          "name": "amountOut",
          "type": "uint256"
        },
        {
          "internalType": "uint256",
          "name": "reserveIn",
          "type": "uint256"
        },
        {
          "internalType": "uint256",
          "name": "reserveOut",
          "type": "uint256"
        }
      ],
      "name": "getAmountIn",
      "outputs": [
        {
          "internalType": "uint256",
          "name": "amountIn",
          "type": "uint256"
        }
      ],
      "stateMutability": "pure",
      "type": "function"
    },
    {
      "inputs": [
        {
          "internalType": "uint256",
          "name": "amountIn",
          "type": "uint256"
        },
        {
          "internalType": "uint256",
          "name": "reserveIn",
          "type": "uint256"
        },
        {
          "internalType": "uint256",
          "name": "reserveOut",
          "type": "uint256"
        }
      ],
      "name": "getAmountOut",
      "outputs": [
        {
          "internalType": "uint256",
          "name": "amountOut",
          "type": "uint256"
        }
      ],
      "stateMutability": "pure",
      "type": "function"
    },
    {
      "inputs": [
        {
          "internalType": "uint256",
          "name": "amountOut",
          "type": "uint256"
        },
        {
          "internalType": "address[]",
          "name": "path",
          "type": "address[]"
        }
      ],
      "name": "getAmountsIn",
      "outputs": [
        {
          "internalType": "uint256[]",
          "name": "amounts",
          "type": "uint256[]"
        }
      ],
      "stateMutability": "view",
      "type": "function"
    },
    {
      "inputs": [
        {
          "internalType": "uint256",
          "name": "amountIn",
          "type": "uint256"
        },
        {
          "internalType": "address[]",
          "name": "path",
          "type": "address[]"
        }
      ],
      "name": "getAmountsOut",
      "outputs": [
        {
          "internalType": "uint256[]",
          "name": "amounts",
          "type": "uint256[]"
        }
      ],
      "stateMutability": "view",
      "type": "function"
    },
    {
      "inputs": [
        {
          "internalType": "uint256",
          "name": "amountA",
          "type": "uint256"
        },
        {
          "internalType": "uint256",
          "name": "reserveA",
          "type": "uint256"
        },
        {
          "internalType": "uint256",
          "name": "reserveB",
          "type": "uint256"
        }
      ],
      "name": "quote",
      "outputs": [
        {
          "internalType": "uint256",
          "name": "amountB",
          "type": "uint256"
        }
      ],
      "stateMutability": "pure",
      "type": "function"
    },
    {
      "inputs": [
        {
          "internalType": "address",
          "name": "tokenA",
          "type": "address"
        },
        {
          "internalType": "address",
          "name": "tokenB",
          "type": "address"
        },
        {
          "internalType": "uint256",
          "name": "liquidity",
          "type": "uint256"
        },
        {
          "internalType": "uint256",
          "name": "amountAMin",
          "type": "uint256"
        },
        {
          "internalType": "uint256",
          "name": "amountBMin",
          "type": "uint256"
        },
        {
          "internalType": "address",
          "name": "to",
          "type": "address"
        },
        {
          "internalType": "uint256",
          "name": "deadline",
          "type": "uint256"
        }
      ],
      "name": "removeLiquidity",
      "outputs": [
        {
          "internalType": "uint256",
          "name": "amountA",
          "type": "uint256"
        },
        {
          "internalType": "uint256",
          "name": "amountB",
          "type": "uint256"
        }
      ],
      "stateMutability": "nonpayable",
      "type": "function"
    },
    {
      "inputs": [
        {
          "internalType": "address",
          "name": "token",
          "type": "address"
        },
        {
          "internalType": "uint256",
          "name": "liquidity",
          "type": "uint256"
        },
        {
          "internalType": "uint256",
          "name": "amountTokenMin",
          "type": "uint256"
        },
        {
          "internalType": "uint256",
          "name": "amountETHMin",
          "type": "uint256"
        },
        {
          "internalType": "address",
          "name": "to",
          "type": "address"
        },
        {
          "internalType": "uint256",
          "name": "deadline",
          "type": "uint256"
        }
      ],
      "name": "removeLiquidityETH",
      "outputs": [
        {
          "internalType": "uint256",
          "name": "amountToken",
          "type": "uint256"
        },
        {
          "internalType": "uint256",
          "name": "amountETH",
          "type": "uint256"
        }
      ],
      "stateMutability": "nonpayable",
      "type": "function"
    },
    {
      "inputs": [
        {
          "internalType": "address",
          "name": "token",
          "type": "address"
        },
        {
          "internalType": "uint256",
          "name": "liquidity",
          "type": "uint256"
        },
        {
          "internalType": "uint256",
          "name": "amountTokenMin",
          "type": "uint256"
        },
        {
          "internalType": "uint256",
          "name": "amountETHMin",
          "type": "uint256"
        },
        {
          "internalType": "address",
          "name": "to",
          "type": "address"
        },
        {
          "internalType": "uint256",
          "name": "deadline",
          "type": "uint256"
        }
      ],
      "name": "removeLiquidityETHSupportingFeeOnTransferTokens",
      "outputs": [
        {
          "internalType": "uint256",
          "name": "amountETH",
          "type": "uint256"
        }
      ],
      "stateMutability": "nonpayable",
      "type": "function"
    },
    {
      "inputs": [
        {
          "internalType": "address",
          "name": "token",
          "type": "address"
        },
        {
          "internalType": "uint256",
          "name": "liquidity",
          "type": "uint256"
        },
        {
          "internalType": "uint256",
          "name": "amountTokenMin",
          "type": "uint256"
        },
        {
          "internalType": "uint256",
          "name": "amountETHMin",
          "type": "uint256"
        },
        {
          "internalType": "address",
          "name": "to",
          "type": "address"
        },
        {
          "internalType": "uint256",
          "name": "deadline",
          "type": "uint256"
        },
        {
          "internalType": "bool",
          "name": "approveMax",
          "type": "bool"
        },
        {
          "internalType": "uint8",
          "name": "v",
          "type": "uint8"
        },
        {
          "internalType": "bytes32",
          "name": "r",
          "type": "bytes32"
        },
        {
          "internalType": "bytes32",
          "name": "s",
          "type": "bytes32"
        }
      ],
      "name": "removeLiquidityETHWithPermit",
      "outputs": [
        {
          "internalType": "uint256",
          "name": "amountToken",
          "type": "uint256"
        },
        {
          "internalType": "uint256",
          "name": "amountETH",
          "type": "uint256"
        }
      ],
      "stateMutability": "nonpayable",
      "type": "function"
    },
    {
      "inputs": [
        {
          "internalType": "address",
          "name": "token",
          "type": "address"
        },
        {
          "internalType": "uint256",
          "name": "liquidity",
          "type": "uint256"
        },
        {
          "internalType": "uint256",
          "name": "amountTokenMin",
          "type": "uint256"
        },
        {
          "internalType": "uint256",
          "name": "amountETHMin",
          "type": "uint256"
        },
        {
          "internalType": "address",
          "name": "to",
          "type": "address"
        },
        {
          "internalType": "uint256",
          "name": "deadline",
          "type": "uint256"
        },
        {
          "internalType": "bool",
          "name": "approveMax",
          "type": "bool"
        },
        {
          "internalType": "uint8",
          "name": "v",
          "type": "uint8"
        },
        {
          "internalType": "bytes32",
          "name": "r",
          "type": "bytes32"
        },
        {
          "internalType": "bytes32",
          "name": "s",
          "type": "bytes32"
        }
      ],
      "name": "removeLiquidityETHWithPermitSupportingFeeOnTransferTokens",
      "outputs": [
        {
          "internalType": "uint256",
          "name": "amountETH",
          "type": "uint256"
        }
      ],
      "stateMutability": "nonpayable",
      "type": "function"
    },
    {
      "inputs": [
        {
          "internalType": "address",
          "name": "tokenA",
          "type": "address"
        },
        {
          "internalType": "address",
          "name": "tokenB",
          "type": "address"
        },
        {
          "internalType": "uint256",
          "name": "liquidity",
          "type": "uint256"
        },
        {
          "internalType": "uint256",
          "name": "amountAMin",
          "type": "uint256"
        },
        {
          "internalType": "uint256",
          "name": "amountBMin",
          "type": "uint256"
        },
        {
          "internalType": "address",
          "name": "to",
          "type": "address"
        },
        {
          "internalType": "uint256",
          "name": "deadline",
          "type": "uint256"
        },
        {
          "internalType": "bool",
          "name": "approveMax",
          "type": "bool"
        },
        {
          "internalType": "uint8",
          "name": "v",
          "type": "uint8"
        },
        {
          "internalType": "bytes32",
          "name": "r",
          "type": "bytes32"
        },
        {
          "internalType": "bytes32",
          "name": "s",
          "type": "bytes32"
        }
      ],
      "name": "removeLiquidityWithPermit",
      "outputs": [
        {
          "internalType": "uint256",
          "name": "amountA",
          "type": "uint256"
        },
        {
          "internalType": "uint256",
          "name": "amountB",
          "type": "uint256"
        }
      ],
      "stateMutability": "nonpayable",
      "type": "function"
    },
    {
      "inputs": [
        {
          "internalType": "uint256",
          "name": "amountOutMin",
          "type": "uint256"
        },
        {
          "internalType": "address[]",
          "name": "path",
          "type": "address[]"
        },
        {
          "internalType": "address",
          "name": "to",
          "type": "address"
        },
        {
          "internalType": "uint256",
          "name": "deadline",
          "type": "uint256"
        }
      ],
      "name": "swapExactETHForTokens",
      "outputs": [
        {
          "internalType": "uint256[]",
          "name": "amounts",
          "type": "uint256[]"
        }
      ],
      "stateMutability": "payable",
      "type": "function"
    },
    {
      "inputs": [
        {
          "internalType": "uint256",
          "name": "amountIn",
          "type": "uint256"
        },
        {
          "internalType": "uint256",
          "name": "amountOutMin",
          "type": "uint256"
        },
        {
          "internalType": "address[]",
          "name": "path",
          "type": "address[]"
        },
        {
          "internalType": "address",
          "name": "to",
          "type": "address"
        },
        {
          "internalType": "uint256",
          "name": "deadline",
          "type": "uint256"
        }
      ],
      "name": "swapExactTokensForTokens",
      "outputs": [
        {
          "internalType": "uint256[]",
          "name": "amounts",
          "type": "uint256[]"
        }
      ],
      "stateMutability": "nonpayable",
      "type": "function"
    },
    {
      "inputs": [
        {
          "internalType": "uint256",
          "name": "amountIn",
          "type": "uint256"
        },
        {
          "internalType": "uint256",
          "name": "amountOutMin",
          "type": "uint256"
        },
        {
          "internalType": "address[]",
          "name": "path",
          "type": "address[]"
        },
        {
          "internalType": "address",
          "name": "to",
          "type": "address"
        },
        {
          "internalType": "uint256",
          "name": "deadline",
          "type": "uint256"
        }
      ],
      "name": "swapExactTokensForTokensSupportingFeeOnTransferTokens",
      "outputs": [],
      "stateMutability": "nonpayable",
      "type": "function"
    },
    {
      "inputs": [
        {
          "internalType": "uint256",
          "name": "amountOut",
          "type": "uint256"
        },
        {
          "internalType": "uint256",
          "name": "amountInMax",
          "type": "uint256"
        },
        {
          "internalType": "address[]",
          "name": "path",
          "type": "address[]"
        },
        {
          "internalType": "address",
          "name": "to",
          "type": "address"
        },
        {
          "internalType": "uint256",
          "name": "deadline",
          "type": "uint256"
        }
      ],
      "name": "swapTokensForExactETH",
      "outputs": [
        {
          "internalType": "uint256[]",
          "name": "amounts",
          "type": "uint256[]"
        }
      ],
      "stateMutability": "nonpayable",
      "type": "function"
    },
    {
      "inputs": [
        {
          "internalType": "uint256",
          "name": "amountOut",
          "type": "uint256"
        },
        {
          "internalType": "uint256",
          "name": "amountInMax",
          "type": "uint256"
        },
        {
          "internalType": "address[]",
          "name": "path",
          "type": "address[]"
        },
        {
          "internalType": "address",
          "name": "to",
          "type": "address"
        },
        {
          "internalType": "uint256",
          "name": "deadline",
          "type": "uint256"
        }
      ],
      "name": "swapTokensForExactTokens",
      "outputs": [
        {
          "internalType": "uint256[]",
          "name": "amounts",
          "type": "uint256[]"
        }
      ],
      "stateMutability": "nonpayable",
      "type": "function"
    },
    {
      "stateMutability": "payable",
      "type": "receive"
    }
  ],
  "bytecode": "0x60c06040523480156200001157600080fd5b5060405162005e5338038062005e538339818101604052810190620000379190620000c4565b8173ffffffffffffffffffffffffffffffffffffffff1660808173ffffffffffffffffffffffffffffffffffffffff1660601b815250508073ffffffffffffffffffffffffffffffffffffffff1660a08173ffffffffffffffffffffffffffffffffffffffff1660601b81525050505062000153565b600081519050620000be8162000139565b92915050565b60008060408385031215620000d857600080fd5b6000620000e885828601620000ad565b9250506020620000fb85828601620000ad565b9150509250929050565b6000620001128262000119565b9050919050565b600073ffffffffffffffffffffffffffffffffffffffff82169050919050565b620001448162000105565b81146200015057600080fd5b50565b60805160601c60a05160601c615bbc620002976000396000818161012a01528181610678015281816106b601528181610be701528181610f70015281816110d2015281816115e3015281816117bd0152818161187f01528181611dc201528181611e4601528181611f0a015281816122af015281816125360152818161258f015281816125c30152612644015260008181610772015281816107aa015281816108ee01528181610a3f01528181610cd401528181610e19015281816110b00152818161125c015281816116c2015281816118be01528181611b1b01528181611c6001528181611ff60152818161222c015281816122550152818161228d0152818161240a0152818161256d0152818161334a015281816133c4015281816135b0015281816137da01528181613cc501528181613d8c0152613e410152615bbc6000f3fe6080604052600436106101235760003560e01c80638803dbee116100a0578063c45a015511610064578063c45a015514610514578063d06ca61f1461053f578063ded9382a1461057c578063e8e33700146105ba578063f305d719146105f9576101ac565b80638803dbee146103f4578063ad5c464814610431578063ad615dec1461045c578063af2979eb14610499578063baa2abde146104d6576101ac565b80634a25d94a116100e75780634a25d94a146102e45780635b0d5984146103215780635c11d7951461035e5780637ff36ab51461038757806385f8c259146103b7576101ac565b806302751cec146101b1578063054d50d4146101ef5780631f00ca741461022c5780632195995c1461026957806338ed1739146102a7576101ac565b366101ac577f000000000000000000000000000000000000000000000000000000000000000073ffffffffffffffffffffffffffffffffffffffff163373ffffffffffffffffffffffffffffffffffffffff16146101aa577f4e487b7100000000000000000000000000000000000000000000000000000000600052600160045260246000fd5b005b600080fd5b3480156101bd57600080fd5b506101d860048036038101906101d391906145b7565b61062b565b6040516101e6929190615643565b60405180910390f35b3480156101fb57600080fd5b506102166004803603810190610211919061495e565b610755565b6040516102239190615628565b60405180910390f35b34801561023857600080fd5b50610253600480360381019061024e919061483c565b61076b565b60405161026091906153a6565b60405180910390f35b34801561027557600080fd5b50610290600480360381019061028b9190614415565b6107a0565b60405161029e929190615643565b60405180910390f35b3480156102b357600080fd5b506102ce60048036038101906102c991906148cc565b6108a3565b6040516102db91906153a6565b60405180910390f35b3480156102f057600080fd5b5061030b600480360381019061030691906148cc565b610b9f565b60405161031891906153a6565b60405180910390f35b34801561032d57600080fd5b5061034860048036038101906103439190614640565b6110a8565b6040516103559190615628565b60405180910390f35b34801561036a57600080fd5b50610385600480360381019061038091906148cc565b6111c0565b005b6103a1600480360381019061039c91906147bc565b61159b565b6040516103ae91906153a6565b60405180910390f35b3480156103c357600080fd5b506103de60048036038101906103d9919061495e565b611aba565b6040516103eb9190615628565b60405180910390f35b34801561040057600080fd5b5061041b600480360381019061041691906148cc565b611ad0565b60405161042891906153a6565b60405180910390f35b34801561043d57600080fd5b50610446611dc0565b6040516104539190615293565b60405180910390f35b34801561046857600080fd5b50610483600480360381019061047e919061495e565b611de4565b6040516104909190615628565b60405180910390f35b3480156104a557600080fd5b506104c060048036038101906104bb91906145b7565b611dfa565b6040516104cd9190615628565b60405180910390f35b3480156104e257600080fd5b506104fd60048036038101906104f89190614377565b611fa8565b60405161050b929190615643565b60405180910390f35b34801561052057600080fd5b5061052961222a565b6040516105369190615293565b60405180910390f35b34801561054b57600080fd5b506105666004803603810190610561919061483c565b61224e565b60405161057391906153a6565b60405180910390f35b34801561058857600080fd5b506105a3600480360381019061059e9190614640565b612283565b6040516105b1929190615643565b60405180910390f35b3480156105c657600080fd5b506105e160048036038101906105dc9190614505565b6123a4565b6040516105f0939291906156b8565b60405180910390f35b610613600480360381019061060e91906145b7565b6124e7565b604051610622939291906156b8565b60405180910390f35b6000808242811015610672576040517f08c379a0000000000000000000000000000000000000000000000000000000008152600401610669906153e8565b60405180910390fd5b6106a1897f00000000000000000000000000000000000000000000000000000000000000008a8a8a308a611fa8565b80935081945050506106b48986856127db565b7f000000000000000000000000000000000000000000000000000000000000000073ffffffffffffffffffffffffffffffffffffffff16632e1a7d4d836040518263ffffffff1660e01b815260040161070d9190615628565b600060405180830381600087803b15801561072757600080fd5b505af115801561073b573d6000803e3d6000fd5b505050506107498583612911565b50965096945050505050565b6000610762848484612a37565b90509392505050565b60606107987f00000000000000000000000000000000000000000000000000000000000000008484612b3d565b905092915050565b60008060006107d07f00000000000000000000000000000000000000000000000000000000000000008f8f612dbc565b90506000876107df578c610801565b7fffffffffffffffffffffffffffffffffffffffffffffffffffffffffffffffff5b90508173ffffffffffffffffffffffffffffffffffffffff1663d505accf3330848d8c8c8c6040518863ffffffff1660e01b8152600401610848979695949392919061530e565b600060405180830381600087803b15801561086257600080fd5b505af1158015610876573d6000803e3d6000fd5b505050506108898f8f8f8f8f8f8f611fa8565b809450819550505050509b509b9950505050505050505050565b606081428110156108e9576040517f08c379a00000000000000000000000000000000000000000000000000000000081526004016108e0906153e8565b60405180910390fd5b6109557f000000000000000000000000000000000000000000000000000000000000000089888880806020026020016040519081016040528093929190818152602001838360200280828437600081840152601f19601f82011690508083019250505050505050612e2e565b915086826001845161096791906158a9565b8151811061099e577f4e487b7100000000000000000000000000000000000000000000000000000000600052603260045260246000fd5b602002602001015110156109e7576040517f08c379a00000000000000000000000000000000000000000000000000000000081526004016109de906155a8565b60405180910390fd5b610b4886866000818110610a24577f4e487b7100000000000000000000000000000000000000000000000000000000600052603260045260246000fd5b9050602002016020810190610a399190614325565b33610b017f00000000000000000000000000000000000000000000000000000000000000008a8a6000818110610a98577f4e487b7100000000000000000000000000000000000000000000000000000000600052603260045260246000fd5b9050602002016020810190610aad9190614325565b8b8b6001818110610ae7577f4e487b7100000000000000000000000000000000000000000000000000000000600052603260045260246000fd5b9050602002016020810190610afc9190614325565b612dbc565b85600081518110610b3b577f4e487b7100000000000000000000000000000000000000000000000000000000600052603260045260246000fd5b602002602001015161309d565b610b9482878780806020026020016040519081016040528093929190818152602001838360200280828437600081840152601f19601f82011690508083019250505050505050866131d6565b509695505050505050565b60608142811015610be5576040517f08c379a0000000000000000000000000000000000000000000000000000000008152600401610bdc906153e8565b60405180910390fd5b7f000000000000000000000000000000000000000000000000000000000000000073ffffffffffffffffffffffffffffffffffffffff168686600189899050610c2e91906158a9565b818110610c64577f4e487b7100000000000000000000000000000000000000000000000000000000600052603260045260246000fd5b9050602002016020810190610c799190614325565b73ffffffffffffffffffffffffffffffffffffffff1614610ccf576040517f08c379a0000000000000000000000000000000000000000000000000000000008152600401610cc6906154e8565b60405180910390fd5b610d3b7f000000000000000000000000000000000000000000000000000000000000000089888880806020026020016040519081016040528093929190818152602001838360200280828437600081840152601f19601f82011690508083019250505050505050612b3d565b91508682600081518110610d78577f4e487b7100000000000000000000000000000000000000000000000000000000600052603260045260246000fd5b60200260200101511115610dc1576040517f08c379a0000000000000000000000000000000000000000000000000000000008152600401610db890615568565b60405180910390fd5b610f2286866000818110610dfe577f4e487b7100000000000000000000000000000000000000000000000000000000600052603260045260246000fd5b9050602002016020810190610e139190614325565b33610edb7f00000000000000000000000000000000000000000000000000000000000000008a8a6000818110610e72577f4e487b7100000000000000000000000000000000000000000000000000000000600052603260045260246000fd5b9050602002016020810190610e879190614325565b8b8b6001818110610ec1577f4e487b7100000000000000000000000000000000000000000000000000000000600052603260045260246000fd5b9050602002016020810190610ed69190614325565b612dbc565b85600081518110610f15577f4e487b7100000000000000000000000000000000000000000000000000000000600052603260045260246000fd5b602002602001015161309d565b610f6e82878780806020026020016040519081016040528093929190818152602001838360200280828437600081840152601f19601f82011690508083019250505050505050306131d6565b7f000000000000000000000000000000000000000000000000000000000000000073ffffffffffffffffffffffffffffffffffffffff16632e1a7d4d8360018551610fb991906158a9565b81518110610ff0577f4e487b7100000000000000000000000000000000000000000000000000000000600052603260045260246000fd5b60200260200101516040518263ffffffff1660e01b81526004016110149190615628565b600060405180830381600087803b15801561102e57600080fd5b505af1158015611042573d6000803e3d6000fd5b5050505061109d84836001855161105991906158a9565b81518110611090577f4e487b7100000000000000000000000000000000000000000000000000000000600052603260045260246000fd5b6020026020010151612911565b509695505050505050565b6000806110f67f00000000000000000000000000000000000000000000000000000000000000008d7f0000000000000000000000000000000000000000000000000000000000000000612dbc565b9050600086611105578b611127565b7fffffffffffffffffffffffffffffffffffffffffffffffffffffffffffffffff5b90508173ffffffffffffffffffffffffffffffffffffffff1663d505accf3330848c8b8b8b6040518863ffffffff1660e01b815260040161116e979695949392919061530e565b600060405180830381600087803b15801561118857600080fd5b505af115801561119c573d6000803e3d6000fd5b505050506111ae8d8d8d8d8d8d611dfa565b925050509a9950505050505050505050565b8042811015611204576040517f08c379a00000000000000000000000000000000000000000000000000000000081526004016111fb906153e8565b60405180910390fd5b61132485856000818110611241577f4e487b7100000000000000000000000000000000000000000000000000000000600052603260045260246000fd5b90506020020160208101906112569190614325565b3361131e7f0000000000000000000000000000000000000000000000000000000000000000898960008181106112b5577f4e487b7100000000000000000000000000000000000000000000000000000000600052603260045260246000fd5b90506020020160208101906112ca9190614325565b8a8a6001818110611304577f4e487b7100000000000000000000000000000000000000000000000000000000600052603260045260246000fd5b90506020020160208101906113199190614325565b612dbc565b8a61309d565b6000858560018888905061133891906158a9565b81811061136e577f4e487b7100000000000000000000000000000000000000000000000000000000600052603260045260246000fd5b90506020020160208101906113839190614325565b73ffffffffffffffffffffffffffffffffffffffff166370a08231856040518263ffffffff1660e01b81526004016113bb9190615293565b60206040518083038186803b1580156113d357600080fd5b505afa1580156113e7573d6000803e3d6000fd5b505050506040513d601f19601f8201168201806040525081019061140b9190614793565b9050611458868680806020026020016040519081016040528093929190818152602001838360200280828437600081840152601f19601f82011690508083019250505050505050856134ed565b8661155082888860018b8b905061146f91906158a9565b8181106114a5577f4e487b7100000000000000000000000000000000000000000000000000000000600052603260045260246000fd5b90506020020160208101906114ba9190614325565b73ffffffffffffffffffffffffffffffffffffffff166370a08231886040518263ffffffff1660e01b81526004016114f29190615293565b60206040518083038186803b15801561150a57600080fd5b505afa15801561151e573d6000803e3d6000fd5b505050506040513d601f19601f820116820180604052508101906115429190614793565b61395490919063ffffffff16565b1015611591576040517f08c379a0000000000000000000000000000000000000000000000000000000008152600401611588906155a8565b60405180910390fd5b5050505050505050565b606081428110156115e1576040517f08c379a00000000000000000000000000000000000000000000000000000000081526004016115d8906153e8565b60405180910390fd5b7f000000000000000000000000000000000000000000000000000000000000000073ffffffffffffffffffffffffffffffffffffffff1686866000818110611652577f4e487b7100000000000000000000000000000000000000000000000000000000600052603260045260246000fd5b90506020020160208101906116679190614325565b73ffffffffffffffffffffffffffffffffffffffff16146116bd576040517f08c379a00000000000000000000000000000000000000000000000000000000081526004016116b4906154e8565b60405180910390fd5b6117297f000000000000000000000000000000000000000000000000000000000000000034888880806020026020016040519081016040528093929190818152602001838360200280828437600081840152601f19601f82011690508083019250505050505050612e2e565b915086826001845161173b91906158a9565b81518110611772577f4e487b7100000000000000000000000000000000000000000000000000000000600052603260045260246000fd5b602002602001015110156117bb576040517f08c379a00000000000000000000000000000000000000000000000000000000081526004016117b2906155a8565b60405180910390fd5b7f000000000000000000000000000000000000000000000000000000000000000073ffffffffffffffffffffffffffffffffffffffff1663d0e30db083600081518110611831577f4e487b7100000000000000000000000000000000000000000000000000000000600052603260045260246000fd5b60200260200101516040518263ffffffff1660e01b81526004016000604051808303818588803b15801561186457600080fd5b505af1158015611878573d6000803e3d6000fd5b50505050507f000000000000000000000000000000000000000000000000000000000000000073ffffffffffffffffffffffffffffffffffffffff1663a9059cbb6119807f000000000000000000000000000000000000000000000000000000000000000089896000818110611917577f4e487b7100000000000000000000000000000000000000000000000000000000600052603260045260246000fd5b905060200201602081019061192c9190614325565b8a8a6001818110611966577f4e487b7100000000000000000000000000000000000000000000000000000000600052603260045260246000fd5b905060200201602081019061197b9190614325565b612dbc565b846000815181106119ba577f4e487b7100000000000000000000000000000000000000000000000000000000600052603260045260246000fd5b60200260200101516040518363ffffffff1660e01b81526004016119df92919061537d565b602060405180830381600087803b1580156119f957600080fd5b505af1158015611a0d573d6000803e3d6000fd5b505050506040513d601f19601f82011682018060405250810190611a31919061471b565b611a64577f4e487b7100000000000000000000000000000000000000000000000000000000600052600160045260246000fd5b611ab082878780806020026020016040519081016040528093929190818152602001838360200280828437600081840152601f19601f82011690508083019250505050505050866131d6565b5095945050505050565b6000611ac78484846139ad565b90509392505050565b60608142811015611b16576040517f08c379a0000000000000000000000000000000000000000000000000000000008152600401611b0d906153e8565b60405180910390fd5b611b827f000000000000000000000000000000000000000000000000000000000000000089888880806020026020016040519081016040528093929190818152602001838360200280828437600081840152601f19601f82011690508083019250505050505050612b3d565b91508682600081518110611bbf577f4e487b7100000000000000000000000000000000000000000000000000000000600052603260045260246000fd5b60200260200101511115611c08576040517f08c379a0000000000000000000000000000000000000000000000000000000008152600401611bff90615568565b60405180910390fd5b611d6986866000818110611c45577f4e487b7100000000000000000000000000000000000000000000000000000000600052603260045260246000fd5b9050602002016020810190611c5a9190614325565b33611d227f00000000000000000000000000000000000000000000000000000000000000008a8a6000818110611cb9577f4e487b7100000000000000000000000000000000000000000000000000000000600052603260045260246000fd5b9050602002016020810190611cce9190614325565b8b8b6001818110611d08577f4e487b7100000000000000000000000000000000000000000000000000000000600052603260045260246000fd5b9050602002016020810190611d1d9190614325565b612dbc565b85600081518110611d5c577f4e487b7100000000000000000000000000000000000000000000000000000000600052603260045260246000fd5b602002602001015161309d565b611db582878780806020026020016040519081016040528093929190818152602001838360200280828437600081840152601f19601f82011690508083019250505050505050866131d6565b509695505050505050565b7f000000000000000000000000000000000000000000000000000000000000000081565b6000611df1848484613ac0565b90509392505050565b60008142811015611e40576040517f08c379a0000000000000000000000000000000000000000000000000000000008152600401611e37906153e8565b60405180910390fd5b611e6f887f00000000000000000000000000000000000000000000000000000000000000008989893089611fa8565b905080925050611f0888858a73ffffffffffffffffffffffffffffffffffffffff166370a08231306040518263ffffffff1660e01b8152600401611eb39190615293565b60206040518083038186803b158015611ecb57600080fd5b505afa158015611edf573d6000803e3d6000fd5b505050506040513d601f19601f82011682018060405250810190611f039190614793565b6127db565b7f000000000000000000000000000000000000000000000000000000000000000073ffffffffffffffffffffffffffffffffffffffff16632e1a7d4d836040518263ffffffff1660e01b8152600401611f619190615628565b600060405180830381600087803b158015611f7b57600080fd5b505af1158015611f8f573d6000803e3d6000fd5b50505050611f9d8483612911565b509695505050505050565b6000808242811015611fef576040517f08c379a0000000000000000000000000000000000000000000000000000000008152600401611fe6906153e8565b60405180910390fd5b600061201c7f00000000000000000000000000000000000000000000000000000000000000008c8c612dbc565b90508073ffffffffffffffffffffffffffffffffffffffff166323b872dd33838c6040518463ffffffff1660e01b815260040161205b939291906152d7565b602060405180830381600087803b15801561207557600080fd5b505af1158015612089573d6000803e3d6000fd5b505050506040513d601f19601f820116820180604052508101906120ad919061471b565b506000808273ffffffffffffffffffffffffffffffffffffffff166389afcb44896040518263ffffffff1660e01b81526004016120ea9190615293565b6040805180830381600087803b15801561210357600080fd5b505af1158015612117573d6000803e3d6000fd5b505050506040513d601f19601f8201168201806040525081019061213b9190614890565b91509150600061214b8e8e613b7a565b5090508073ffffffffffffffffffffffffffffffffffffffff168e73ffffffffffffffffffffffffffffffffffffffff161461218857818361218b565b82825b80975081985050508a8710156121d6576040517f08c379a00000000000000000000000000000000000000000000000000000000081526004016121cd90615588565b60405180910390fd5b89861015612219576040517f08c379a0000000000000000000000000000000000000000000000000000000008152600401612210906154c8565b60405180910390fd5b505050505097509795505050505050565b7f000000000000000000000000000000000000000000000000000000000000000081565b606061227b7f00000000000000000000000000000000000000000000000000000000000000008484612e2e565b905092915050565b60008060006122d37f00000000000000000000000000000000000000000000000000000000000000008e7f0000000000000000000000000000000000000000000000000000000000000000612dbc565b90506000876122e2578c612304565b7fffffffffffffffffffffffffffffffffffffffffffffffffffffffffffffffff5b90508173ffffffffffffffffffffffffffffffffffffffff1663d505accf3330848d8c8c8c6040518863ffffffff1660e01b815260040161234b979695949392919061530e565b600060405180830381600087803b15801561236557600080fd5b505af1158015612379573d6000803e3d6000fd5b5050505061238b8e8e8e8e8e8e61062b565b809450819550505050509a509a98505050505050505050565b600080600083428110156123ed576040517f08c379a00000000000000000000000000000000000000000000000000000000081526004016123e4906153e8565b60405180910390fd5b6123fb8c8c8c8c8c8c613ca8565b809450819550505060006124307f00000000000000000000000000000000000000000000000000000000000000008e8e612dbc565b905061243e8d33838861309d565b61244a8c33838761309d565b8073ffffffffffffffffffffffffffffffffffffffff16636a627842886040518263ffffffff1660e01b81526004016124839190615293565b602060405180830381600087803b15801561249d57600080fd5b505af11580156124b1573d6000803e3d6000fd5b505050506040513d601f19601f820116820180604052508101906124d59190614793565b92505050985098509895505050505050565b60008060008342811015612530576040517f08c379a0000000000000000000000000000000000000000000000000000000008152600401612527906153e8565b60405180910390fd5b61255e8a7f00000000000000000000000000000000000000000000000000000000000000008b348c8c613ca8565b809450819550505060006125b37f00000000000000000000000000000000000000000000000000000000000000008c7f0000000000000000000000000000000000000000000000000000000000000000612dbc565b90506125c18b33838861309d565b7f000000000000000000000000000000000000000000000000000000000000000073ffffffffffffffffffffffffffffffffffffffff1663d0e30db0856040518263ffffffff1660e01b81526004016000604051808303818588803b15801561262957600080fd5b505af115801561263d573d6000803e3d6000fd5b50505050507f000000000000000000000000000000000000000000000000000000000000000073ffffffffffffffffffffffffffffffffffffffff1663a9059cbb82866040518363ffffffff1660e01b815260040161269d92919061537d565b602060405180830381600087803b1580156126b757600080fd5b505af11580156126cb573d6000803e3d6000fd5b505050506040513d601f19601f820116820180604052508101906126ef919061471b565b612722577f4e487b7100000000000000000000000000000000000000000000000000000000600052600160045260246000fd5b8073ffffffffffffffffffffffffffffffffffffffff16636a627842886040518263ffffffff1660e01b815260040161275b9190615293565b602060405180830381600087803b15801561277557600080fd5b505af1158015612789573d6000803e3d6000fd5b505050506040513d601f19601f820116820180604052508101906127ad9190614793565b9250833411156127cd576127cc3385346127c791906158a9565b612911565b5b505096509650969350505050565b6000808473ffffffffffffffffffffffffffffffffffffffff1663a9059cbb858560405160240161280d92919061537d565b6040516020818303038152906040529060e01b6020820180517bffffffffffffffffffffffffffffffffffffffffffffffffffffffff838183161783525050505060405161285b919061523a565b6000604051808303816000865af19150503d8060008114612898576040519150601f19603f3d011682016040523d82523d6000602084013e61289d565b606091505b50915091508180156128cb57506000815114806128ca5750808060200190518101906128c9919061471b565b5b5b61290a576040517f08c379a0000000000000000000000000000000000000000000000000000000008152600401612901906155c8565b60405180910390fd5b5050505050565b60008273ffffffffffffffffffffffffffffffffffffffff1682600067ffffffffffffffff81111561296c577f4e487b7100000000000000000000000000000000000000000000000000000000600052604160045260246000fd5b6040519080825280601f01601f19166020018201604052801561299e5781602001600182028036833780820191505090505b506040516129ac919061523a565b60006040518083038185875af1925050503d80600081146129e9576040519150601f19603f3d011682016040523d82523d6000602084013e6129ee565b606091505b5050905080612a32576040517f08c379a0000000000000000000000000000000000000000000000000000000008152600401612a2990615488565b60405180910390fd5b505050565b6000808411612a7b576040517f08c379a0000000000000000000000000000000000000000000000000000000008152600401612a7290615608565b60405180910390fd5b600083118015612a8b5750600082115b612aca576040517f08c379a0000000000000000000000000000000000000000000000000000000008152600401612ac190615528565b60405180910390fd5b6000612ae16103e586613f9b90919063ffffffff16565b90506000612af88483613f9b90919063ffffffff16565b90506000612b2383612b156103e889613f9b90919063ffffffff16565b61400890919063ffffffff16565b90508082612b31919061581e565b93505050509392505050565b6060600282511015612b84576040517f08c379a0000000000000000000000000000000000000000000000000000000008152600401612b7b90615508565b60405180910390fd5b815167ffffffffffffffff811115612bc5577f4e487b7100000000000000000000000000000000000000000000000000000000600052604160045260246000fd5b604051908082528060200260200182016040528015612bf35781602001602082028036833780820191505090505b509050828160018351612c0691906158a9565b81518110612c3d577f4e487b7100000000000000000000000000000000000000000000000000000000600052603260045260246000fd5b602002602001018181525050600060018351612c5991906158a9565b90505b6000811115612db457600080612cff8786600186612c7a91906158a9565b81518110612cb1577f4e487b7100000000000000000000000000000000000000000000000000000000600052603260045260246000fd5b6020026020010151878681518110612cf2577f4e487b7100000000000000000000000000000000000000000000000000000000600052603260045260246000fd5b6020026020010151614061565b91509150612d4e848481518110612d3f577f4e487b7100000000000000000000000000000000000000000000000000000000600052603260045260246000fd5b602002602001015183836139ad565b84600185612d5c91906158a9565b81518110612d93577f4e487b7100000000000000000000000000000000000000000000000000000000600052603260045260246000fd5b60200260200101818152505050508080612dac90615999565b915050612c5c565b509392505050565b6000806000612dcb8585613b7a565b91509150858282604051602001612de392919061520e565b60405160208183030381529060405280519060200120604051602001612e0a929190615251565b6040516020818303038152906040528051906020012060001c925050509392505050565b6060600282511015612e75576040517f08c379a0000000000000000000000000000000000000000000000000000000008152600401612e6c90615508565b60405180910390fd5b815167ffffffffffffffff811115612eb6577f4e487b7100000000000000000000000000000000000000000000000000000000600052604160045260246000fd5b604051908082528060200260200182016040528015612ee45781602001602082028036833780820191505090505b5090508281600081518110612f22577f4e487b7100000000000000000000000000000000000000000000000000000000600052603260045260246000fd5b60200260200101818152505060005b60018351612f3f91906158a9565b81101561309557600080612fe087868581518110612f86577f4e487b7100000000000000000000000000000000000000000000000000000000600052603260045260246000fd5b602002602001015187600187612f9c91906157c8565b81518110612fd3577f4e487b7100000000000000000000000000000000000000000000000000000000600052603260045260246000fd5b6020026020010151614061565b9150915061302f848481518110613020577f4e487b7100000000000000000000000000000000000000000000000000000000600052603260045260246000fd5b60200260200101518383612a37565b8460018561303d91906157c8565b81518110613074577f4e487b7100000000000000000000000000000000000000000000000000000000600052603260045260246000fd5b6020026020010181815250505050808061308d906159c3565b915050612f31565b509392505050565b6000808573ffffffffffffffffffffffffffffffffffffffff166323b872dd8686866040516024016130d1939291906152d7565b6040516020818303038152906040529060e01b6020820180517bffffffffffffffffffffffffffffffffffffffffffffffffffffffff838183161783525050505060405161311f919061523a565b6000604051808303816000865af19150503d806000811461315c576040519150601f19603f3d011682016040523d82523d6000602084013e613161565b606091505b509150915081801561318f575060008151148061318e57508080602001905181019061318d919061471b565b5b5b6131ce576040517f08c379a00000000000000000000000000000000000000000000000000000000081526004016131c590615468565b60405180910390fd5b505050505050565b60005b600183516131e791906158a9565b8110156134e75760008084838151811061322a577f4e487b7100000000000000000000000000000000000000000000000000000000600052603260045260246000fd5b60200260200101518560018561324091906157c8565b81518110613277577f4e487b7100000000000000000000000000000000000000000000000000000000600052603260045260246000fd5b602002602001015191509150600061328f8383613b7a565b5090506000876001866132a291906157c8565b815181106132d9577f4e487b7100000000000000000000000000000000000000000000000000000000600052603260045260246000fd5b602002602001015190506000808373ffffffffffffffffffffffffffffffffffffffff168673ffffffffffffffffffffffffffffffffffffffff161461332157826000613325565b6000835b91509150600060028a5161333991906158a9565b881061334557886133bd565b6133bc7f0000000000000000000000000000000000000000000000000000000000000000878c60028c61337891906157c8565b815181106133af577f4e487b7100000000000000000000000000000000000000000000000000000000600052603260045260246000fd5b6020026020010151612dbc565b5b90506133ea7f00000000000000000000000000000000000000000000000000000000000000008888612dbc565b73ffffffffffffffffffffffffffffffffffffffff1663022c0d9f848484600067ffffffffffffffff811115613449577f4e487b7100000000000000000000000000000000000000000000000000000000600052604160045260246000fd5b6040519080825280601f01601f19166020018201604052801561347b5781602001600182028036833780820191505090505b506040518563ffffffff1660e01b815260040161349b949392919061566c565b600060405180830381600087803b1580156134b557600080fd5b505af11580156134c9573d6000803e3d6000fd5b505050505050505050505080806134df906159c3565b9150506131d9565b50505050565b60005b600183516134fe91906158a9565b81101561394f57600080848381518110613541577f4e487b7100000000000000000000000000000000000000000000000000000000600052603260045260246000fd5b60200260200101518560018561355791906157c8565b8151811061358e577f4e487b7100000000000000000000000000000000000000000000000000000000600052603260045260246000fd5b60200260200101519150915060006135a68383613b7a565b50905060006135d67f00000000000000000000000000000000000000000000000000000000000000008585612dbc565b90506000806000808473ffffffffffffffffffffffffffffffffffffffff16630902f1ac6040518163ffffffff1660e01b815260040160606040518083038186803b15801561362457600080fd5b505afa158015613638573d6000803e3d6000fd5b505050506040513d601f19601f8201168201806040525081019061365c9190614744565b506dffffffffffffffffffffffffffff1691506dffffffffffffffffffffffffffff1691506000808773ffffffffffffffffffffffffffffffffffffffff168a73ffffffffffffffffffffffffffffffffffffffff16146136be5782846136c1565b83835b91509150613760828b73ffffffffffffffffffffffffffffffffffffffff166370a082318a6040518263ffffffff1660e01b81526004016137029190615293565b60206040518083038186803b15801561371a57600080fd5b505afa15801561372e573d6000803e3d6000fd5b505050506040513d601f19601f820116820180604052508101906137529190614793565b61395490919063ffffffff16565b955061376d868383612a37565b9450505050506000808573ffffffffffffffffffffffffffffffffffffffff168873ffffffffffffffffffffffffffffffffffffffff16146137b1578260006137b5565b6000835b91509150600060028c516137c991906158a9565b8a106137d5578a61384d565b61384c7f0000000000000000000000000000000000000000000000000000000000000000898e60028e61380891906157c8565b8151811061383f577f4e487b7100000000000000000000000000000000000000000000000000000000600052603260045260246000fd5b6020026020010151612dbc565b5b90508573ffffffffffffffffffffffffffffffffffffffff1663022c0d9f848484600067ffffffffffffffff8111156138af577f4e487b7100000000000000000000000000000000000000000000000000000000600052604160045260246000fd5b6040519080825280601f01601f1916602001820160405280156138e15781602001600182028036833780820191505090505b506040518563ffffffff1660e01b8152600401613901949392919061566c565b600060405180830381600087803b15801561391b57600080fd5b505af115801561392f573d6000803e3d6000fd5b505050505050505050505050508080613947906159c3565b9150506134f0565b505050565b600082828461396391906158a9565b91508111156139a7576040517f08c379a000000000000000000000000000000000000000000000000000000000815260040161399e906153c8565b60405180910390fd5b92915050565b60008084116139f1576040517f08c379a00000000000000000000000000000000000000000000000000000000081526004016139e890615428565b60405180910390fd5b600083118015613a015750600082115b613a40576040517f08c379a0000000000000000000000000000000000000000000000000000000008152600401613a3790615528565b60405180910390fd5b6000613a696103e8613a5b8787613f9b90919063ffffffff16565b613f9b90919063ffffffff16565b90506000613a946103e5613a86888761395490919063ffffffff16565b613f9b90919063ffffffff16565b9050613ab560018284613aa7919061581e565b61400890919063ffffffff16565b925050509392505050565b6000808411613b04576040517f08c379a0000000000000000000000000000000000000000000000000000000008152600401613afb90615548565b60405180910390fd5b600083118015613b145750600082115b613b53576040517f08c379a0000000000000000000000000000000000000000000000000000000008152600401613b4a90615528565b60405180910390fd5b82613b678386613f9b90919063ffffffff16565b613b71919061581e565b90509392505050565b6000808273ffffffffffffffffffffffffffffffffffffffff168473ffffffffffffffffffffffffffffffffffffffff161415613bec576040517f08c379a0000000000000000000000000000000000000000000000000000000008152600401613be3906154a8565b60405180910390fd5b8273ffffffffffffffffffffffffffffffffffffffff168473ffffffffffffffffffffffffffffffffffffffff1610613c26578284613c29565b83835b8092508193505050600073ffffffffffffffffffffffffffffffffffffffff168273ffffffffffffffffffffffffffffffffffffffff161415613ca1576040517f08c379a0000000000000000000000000000000000000000000000000000000008152600401613c98906155e8565b60405180910390fd5b9250929050565b600080600073ffffffffffffffffffffffffffffffffffffffff167f000000000000000000000000000000000000000000000000000000000000000073ffffffffffffffffffffffffffffffffffffffff1663e6a439058a8a6040518363ffffffff1660e01b8152600401613d1e9291906152ae565b60206040518083038186803b158015613d3657600080fd5b505afa158015613d4a573d6000803e3d6000fd5b505050506040513d601f19601f82011682018060405250810190613d6e919061434e565b73ffffffffffffffffffffffffffffffffffffffff161415613e39577f000000000000000000000000000000000000000000000000000000000000000073ffffffffffffffffffffffffffffffffffffffff1663c9c6539689896040518363ffffffff1660e01b8152600401613de59291906152ae565b602060405180830381600087803b158015613dff57600080fd5b505af1158015613e13573d6000803e3d6000fd5b505050506040513d601f19601f82011682018060405250810190613e37919061434e565b505b600080613e677f00000000000000000000000000000000000000000000000000000000000000008b8b614061565b91509150600082148015613e7b5750600081145b15613e8f5787878094508195505050613f8e565b6000613e9c898484613ac0565b9050878111613ef75785811015613ee8576040517f08c379a0000000000000000000000000000000000000000000000000000000008152600401613edf906154c8565b60405180910390fd5b88818095508196505050613f8c565b6000613f04898486613ac0565b905089811115613f3d577f4e487b7100000000000000000000000000000000000000000000000000000000600052600160045260246000fd5b87811015613f80576040517f08c379a0000000000000000000000000000000000000000000000000000000008152600401613f7790615588565b60405180910390fd5b80898096508197505050505b505b5050965096945050505050565b600080821480613fc3575082828385613fb4919061584f565b925082613fc1919061581e565b145b614002576040517f08c379a0000000000000000000000000000000000000000000000000000000008152600401613ff990615408565b60405180910390fd5b92915050565b600082828461401791906157c8565b915081101561405b576040517f08c379a000000000000000000000000000000000000000000000000000000000815260040161405290615448565b60405180910390fd5b92915050565b60008060006140708585613b7a565b509050600080614081888888612dbc565b73ffffffffffffffffffffffffffffffffffffffff16630902f1ac6040518163ffffffff1660e01b815260040160606040518083038186803b1580156140c657600080fd5b505afa1580156140da573d6000803e3d6000fd5b505050506040513d601f19601f820116820180604052508101906140fe9190614744565b506dffffffffffffffffffffffffffff1691506dffffffffffffffffffffffffffff1691508273ffffffffffffffffffffffffffffffffffffffff168773ffffffffffffffffffffffffffffffffffffffff161461415d578082614160565b81815b8095508196505050505050935093915050565b600061418661418184615720565b6156ef565b905080838252602082019050828560208602820111156141a557600080fd5b60005b858110156141d557816141bb88826141df565b8452602084019350602083019250506001810190506141a8565b5050509392505050565b6000813590506141ee81615ae5565b92915050565b60008151905061420381615ae5565b92915050565b60008083601f84011261421b57600080fd5b8235905067ffffffffffffffff81111561423457600080fd5b60208301915083602082028301111561424c57600080fd5b9250929050565b600082601f83011261426457600080fd5b8135614274848260208601614173565b91505092915050565b60008135905061428c81615afc565b92915050565b6000815190506142a181615afc565b92915050565b6000813590506142b681615b13565b92915050565b6000815190506142cb81615b2a565b92915050565b6000813590506142e081615b41565b92915050565b6000815190506142f581615b41565b92915050565b60008151905061430a81615b58565b92915050565b60008135905061431f81615b6f565b92915050565b60006020828403121561433757600080fd5b6000614345848285016141df565b91505092915050565b60006020828403121561436057600080fd5b600061436e848285016141f4565b91505092915050565b600080600080600080600060e0888a03121561439257600080fd5b60006143a08a828b016141df565b97505060206143b18a828b016141df565b96505060406143c28a828b016142d1565b95505060606143d38a828b016142d1565b94505060806143e48a828b016142d1565b93505060a06143f58a828b016141df565b92505060c06144068a828b016142d1565b91505092959891949750929550565b60008060008060008060008060008060006101608c8e03121561443757600080fd5b60006144458e828f016141df565b9b505060206144568e828f016141df565b9a505060406144678e828f016142d1565b99505060606144788e828f016142d1565b98505060806144898e828f016142d1565b97505060a061449a8e828f016141df565b96505060c06144ab8e828f016142d1565b95505060e06144bc8e828f0161427d565b9450506101006144ce8e828f01614310565b9350506101206144e08e828f016142a7565b9250506101406144f28e828f016142a7565b9150509295989b509295989b9093969950565b600080600080600080600080610100898b03121561452257600080fd5b60006145308b828c016141df565b98505060206145418b828c016141df565b97505060406145528b828c016142d1565b96505060606145638b828c016142d1565b95505060806145748b828c016142d1565b94505060a06145858b828c016142d1565b93505060c06145968b828c016141df565b92505060e06145a78b828c016142d1565b9150509295985092959890939650565b60008060008060008060c087890312156145d057600080fd5b60006145de89828a016141df565b96505060206145ef89828a016142d1565b955050604061460089828a016142d1565b945050606061461189828a016142d1565b935050608061462289828a016141df565b92505060a061463389828a016142d1565b9150509295509295509295565b6000806000806000806000806000806101408b8d03121561466057600080fd5b600061466e8d828e016141df565b9a5050602061467f8d828e016142d1565b99505060406146908d828e016142d1565b98505060606146a18d828e016142d1565b97505060806146b28d828e016141df565b96505060a06146c38d828e016142d1565b95505060c06146d48d828e0161427d565b94505060e06146e58d828e01614310565b9350506101006146f78d828e016142a7565b9250506101206147098d828e016142a7565b9150509295989b9194979a5092959850565b60006020828403121561472d57600080fd5b600061473b84828501614292565b91505092915050565b60008060006060848603121561475957600080fd5b6000614767868287016142bc565b9350506020614778868287016142bc565b9250506040614789868287016142fb565b9150509250925092565b6000602082840312156147a557600080fd5b60006147b3848285016142e6565b91505092915050565b6000806000806000608086880312156147d457600080fd5b60006147e2888289016142d1565b955050602086013567ffffffffffffffff8111156147ff57600080fd5b61480b88828901614209565b9450945050604061481e888289016141df565b925050606061482f888289016142d1565b9150509295509295909350565b6000806040838503121561484f57600080fd5b600061485d858286016142d1565b925050602083013567ffffffffffffffff81111561487a57600080fd5b61488685828601614253565b9150509250929050565b600080604083850312156148a357600080fd5b60006148b1858286016142e6565b92505060206148c2858286016142e6565b9150509250929050565b60008060008060008060a087890312156148e557600080fd5b60006148f389828a016142d1565b965050602061490489828a016142d1565b955050604087013567ffffffffffffffff81111561492157600080fd5b61492d89828a01614209565b9450945050606061494089828a016141df565b925050608061495189828a016142d1565b9150509295509295509295565b60008060006060848603121561497357600080fd5b6000614981868287016142d1565b9350506020614992868287016142d1565b92505060406149a3868287016142d1565b9150509250925092565b60006149b983836151e1565b60208301905092915050565b6149ce816158dd565b82525050565b6149e56149e0826158dd565b615a0c565b82525050565b60006149f68261575c565b614a00818561577f565b9350614a0b8361574c565b8060005b83811015614a3c578151614a2388826149ad565b9750614a2e83615772565b925050600181019050614a0f565b5085935050505092915050565b614a52816158fb565b82525050565b614a69614a64826158fb565b615a1e565b82525050565b6000614a7a82615767565b614a848185615790565b9350614a94818560208601615966565b614a9d81615ac7565b840191505092915050565b6000614ab382615767565b614abd81856157a1565b9350614acd818560208601615966565b80840191505092915050565b6000614ae66015836157ac565b91507f64732d6d6174682d7375622d756e646572666c6f7700000000000000000000006000830152602082019050919050565b6000614b266020836157bd565b91507ffbb84ef4af8cf5272eb5a70962628544cc9380d749144bf57095f3769a804d956000830152602082019050919050565b6000614b666018836157ac565b91507f556e69737761705632526f757465723a204558504952454400000000000000006000830152602082019050919050565b6000614ba66014836157ac565b91507f64732d6d6174682d6d756c2d6f766572666c6f770000000000000000000000006000830152602082019050919050565b6000614be6602c836157ac565b91507f556e697377617056324c6962726172793a20494e53554646494349454e545f4f60008301527f55545055545f414d4f554e5400000000000000000000000000000000000000006020830152604082019050919050565b6000614c4c6014836157ac565b91507f64732d6d6174682d6164642d6f766572666c6f770000000000000000000000006000830152602082019050919050565b6000614c8c6031836157ac565b91507f5472616e7366657248656c7065723a3a7472616e7366657246726f6d3a20747260008301527f616e7366657246726f6d206661696c65640000000000000000000000000000006020830152604082019050919050565b6000614cf26034836157ac565b91507f5472616e7366657248656c7065723a3a736166655472616e736665724554483a60008301527f20455448207472616e73666572206661696c65640000000000000000000000006020830152604082019050919050565b6000614d586025836157ac565b91507f556e697377617056324c6962726172793a204944454e544943414c5f4144445260008301527f45535345530000000000000000000000000000000000000000000000000000006020830152604082019050919050565b6000614dbe6026836157ac565b91507f556e69737761705632526f757465723a20494e53554646494349454e545f425f60008301527f414d4f554e5400000000000000000000000000000000000000000000000000006020830152604082019050919050565b6000614e24601d836157ac565b91507f556e69737761705632526f757465723a20494e56414c49445f504154480000006000830152602082019050919050565b6000614e64601e836157ac565b91507f556e697377617056324c6962726172793a20494e56414c49445f5041544800006000830152602082019050919050565b6000614ea46028836157ac565b91507f556e697377617056324c6962726172793a20494e53554646494349454e545f4c60008301527f49515549444954590000000000000000000000000000000000000000000000006020830152604082019050919050565b6000614f0a6001836157bd565b91507fff000000000000000000000000000000000000000000000000000000000000006000830152600182019050919050565b6000614f4a6025836157ac565b91507f556e697377617056324c6962726172793a20494e53554646494349454e545f4160008301527f4d4f554e540000000000000000000000000000000000000000000000000000006020830152604082019050919050565b6000614fb06027836157ac565b91507f556e69737761705632526f757465723a204558434553534956455f494e50555460008301527f5f414d4f554e54000000000000000000000000000000000000000000000000006020830152604082019050919050565b60006150166026836157ac565b91507f556e69737761705632526f757465723a20494e53554646494349454e545f415f60008301527f414d4f554e5400000000000000000000000000000000000000000000000000006020830152604082019050919050565b600061507c602b836157ac565b91507f556e69737761705632526f757465723a20494e53554646494349454e545f4f5560008301527f545055545f414d4f554e540000000000000000000000000000000000000000006020830152604082019050919050565b60006150e2602d836157ac565b91507f5472616e7366657248656c7065723a3a736166655472616e736665723a20747260008301527f616e73666572206661696c6564000000000000000000000000000000000000006020830152604082019050919050565b6000615148601e836157ac565b91507f556e697377617056324c6962726172793a205a45524f5f4144445245535300006000830152602082019050919050565b6000615188602b836157ac565b91507f556e697377617056324c6962726172793a20494e53554646494349454e545f4960008301527f4e5055545f414d4f554e540000000000000000000000000000000000000000006020830152604082019050919050565b6151ea8161593f565b82525050565b6151f98161593f565b82525050565b61520881615959565b82525050565b600061521a82856149d4565b60148201915061522a82846149d4565b6014820191508190509392505050565b60006152468284614aa8565b915081905092915050565b600061525c82614efd565b915061526882856149d4565b6014820191506152788284614a58565b60208201915061528782614b19565b91508190509392505050565b60006020820190506152a860008301846149c5565b92915050565b60006040820190506152c360008301856149c5565b6152d060208301846149c5565b9392505050565b60006060820190506152ec60008301866149c5565b6152f960208301856149c5565b61530660408301846151f0565b949350505050565b600060e082019050615323600083018a6149c5565b61533060208301896149c5565b61533d60408301886151f0565b61534a60608301876151f0565b61535760808301866151ff565b61536460a0830185614a49565b61537160c0830184614a49565b98975050505050505050565b600060408201905061539260008301856149c5565b61539f60208301846151f0565b9392505050565b600060208201905081810360008301526153c081846149eb565b905092915050565b600060208201905081810360008301526153e181614ad9565b9050919050565b6000602082019050818103600083015261540181614b59565b9050919050565b6000602082019050818103600083015261542181614b99565b9050919050565b6000602082019050818103600083015261544181614bd9565b9050919050565b6000602082019050818103600083015261546181614c3f565b9050919050565b6000602082019050818103600083015261548181614c7f565b9050919050565b600060208201905081810360008301526154a181614ce5565b9050919050565b600060208201905081810360008301526154c181614d4b565b9050919050565b600060208201905081810360008301526154e181614db1565b9050919050565b6000602082019050818103600083015261550181614e17565b9050919050565b6000602082019050818103600083015261552181614e57565b9050919050565b6000602082019050818103600083015261554181614e97565b9050919050565b6000602082019050818103600083015261556181614f3d565b9050919050565b6000602082019050818103600083015261558181614fa3565b9050919050565b600060208201905081810360008301526155a181615009565b9050919050565b600060208201905081810360008301526155c18161506f565b9050919050565b600060208201905081810360008301526155e1816150d5565b9050919050565b600060208201905081810360008301526156018161513b565b9050919050565b600060208201905081810360008301526156218161517b565b9050919050565b600060208201905061563d60008301846151f0565b92915050565b600060408201905061565860008301856151f0565b61566560208301846151f0565b9392505050565b600060808201905061568160008301876151f0565b61568e60208301866151f0565b61569b60408301856149c5565b81810360608301526156ad8184614a6f565b905095945050505050565b60006060820190506156cd60008301866151f0565b6156da60208301856151f0565b6156e760408301846151f0565b949350505050565b6000604051905081810181811067ffffffffffffffff8211171561571657615715615a98565b5b8060405250919050565b600067ffffffffffffffff82111561573b5761573a615a98565b5b602082029050602081019050919050565b6000819050602082019050919050565b600081519050919050565b600081519050919050565b6000602082019050919050565b600082825260208201905092915050565b600082825260208201905092915050565b600081905092915050565b600082825260208201905092915050565b600081905092915050565b60006157d38261593f565b91506157de8361593f565b9250827fffffffffffffffffffffffffffffffffffffffffffffffffffffffffffffffff0382111561581357615812615a3a565b5b828201905092915050565b60006158298261593f565b91506158348361593f565b92508261584457615843615a69565b5b828204905092915050565b600061585a8261593f565b91506158658361593f565b9250817fffffffffffffffffffffffffffffffffffffffffffffffffffffffffffffffff048311821515161561589e5761589d615a3a565b5b828202905092915050565b60006158b48261593f565b91506158bf8361593f565b9250828210156158d2576158d1615a3a565b5b828203905092915050565b60006158e88261591f565b9050919050565b60008115159050919050565b6000819050919050565b60006dffffffffffffffffffffffffffff82169050919050565b600073ffffffffffffffffffffffffffffffffffffffff82169050919050565b6000819050919050565b600063ffffffff82169050919050565b600060ff82169050919050565b60005b83811015615984578082015181840152602081019050615969565b83811115615993576000848401525b50505050565b60006159a48261593f565b915060008214156159b8576159b7615a3a565b5b600182039050919050565b60006159ce8261593f565b91507fffffffffffffffffffffffffffffffffffffffffffffffffffffffffffffffff821415615a0157615a00615a3a565b5b600182019050919050565b6000615a1782615a28565b9050919050565b6000819050919050565b6000615a3382615ad8565b9050919050565b7f4e487b7100000000000000000000000000000000000000000000000000000000600052601160045260246000fd5b7f4e487b7100000000000000000000000000000000000000000000000000000000600052601260045260246000fd5b7f4e487b7100000000000000000000000000000000000000000000000000000000600052604160045260246000fd5b6000601f19601f8301169050919050565b60008160601b9050919050565b615aee816158dd565b8114615af957600080fd5b50565b615b05816158ef565b8114615b1057600080fd5b50565b615b1c816158fb565b8114615b2757600080fd5b50565b615b3381615905565b8114615b3e57600080fd5b50565b615b4a8161593f565b8114615b5557600080fd5b50565b615b6181615949565b8114615b6c57600080fd5b50565b615b7881615959565b8114615b8357600080fd5b5056fea26469706673582212205111a7004e19541d4c26b6034ed3cb35b8cf2056e184dd2532278fe5a5c72d1864736f6c63430008000033",
  "linkReferences": {},
  "deployedLinkReferences": {}
}