{
  "_format": "hh-sol-artifact-1",
  "contractName": "UniswapV2Migrator",
  "sourceName": "contracts/UniswapV2Migrator.sol",
  "abi": [
    {
      "inputs": [
        {
          "internalType": "address",
          "name": "_factoryV1",
          "type": "address"
        },
        {
          "internalType": "address",
          "name": "_router",
          "type": "address"
        }
      ],
      "stateMutability": "nonpayable",
      "type": "constructor"
    },
    {
      "inputs": [
        {
          "internalType": "address",
          "name": "token",
          "type": "address"
        },
        {
          "internalType": "uint256",
          "name": "amountTokenMin",
          "type": "uint256"
        },
        {
          "internalType": "uint256",
          "name": "amountETHMin",
          "type": "uint256"
        },
        {
          "internalType": "address",
          "name": "to",
          "type": "address"
        },
        {
          "internalType": "uint256",
          "name": "deadline",
          "type": "uint256"
        }
      ],
      "name": "migrate",
      "outputs": [],
      "stateMutability": "nonpayable",
      "type": "function"
    },
    {
      "stateMutability": "payable",
      "type": "receive"
    }
  ],
  "bytecode": "0x60c060405234801561001057600080fd5b506040516200108938038062001089833981810160405281019061003491906100be565b8173ffffffffffffffffffffffffffffffffffffffff1660808173ffffffffffffffffffffffffffffffffffffffff1660601b815250508073ffffffffffffffffffffffffffffffffffffffff1660a08173ffffffffffffffffffffffffffffffffffffffff1660601b815250505050610143565b6000815190506100b88161012c565b92915050565b600080604083850312156100d157600080fd5b60006100df858286016100a9565b92505060206100f0858286016100a9565b9150509250929050565b60006101058261010c565b9050919050565b600073ffffffffffffffffffffffffffffffffffffffff82169050919050565b610135816100fa565b811461014057600080fd5b50565b60805160601c60a05160601c610f0d6200017c6000396000818161031d01528181610347015261040e01526000605b0152610f0d6000f3fe6080604052600436106100225760003560e01c8063b7df1d251461002e57610029565b3661002957005b600080fd5b34801561003a57600080fd5b506100556004803603810190610050919061089f565b610057565b005b60007f000000000000000000000000000000000000000000000000000000000000000073ffffffffffffffffffffffffffffffffffffffff166306f2bf62876040518263ffffffff1660e01b81526004016100b29190610bda565b60206040518083038186803b1580156100ca57600080fd5b505afa1580156100de573d6000803e3d6000fd5b505050506040513d601f19601f820116820180604052508101906101029190610876565b905060008173ffffffffffffffffffffffffffffffffffffffff166370a08231336040518263ffffffff1660e01b815260040161013f9190610bda565b60206040518083038186803b15801561015757600080fd5b505afa15801561016b573d6000803e3d6000fd5b505050506040513d601f19601f8201168201806040525081019061018f919061093f565b90508173ffffffffffffffffffffffffffffffffffffffff166323b872dd3330846040518463ffffffff1660e01b81526004016101ce93929190610bf5565b602060405180830381600087803b1580156101e857600080fd5b505af11580156101fc573d6000803e3d6000fd5b505050506040513d601f19601f820116820180604052508101906102209190610916565b61025f576040517f08c379a000000000000000000000000000000000000000000000000000000000815260040161025690610cd6565b60405180910390fd5b6000808373ffffffffffffffffffffffffffffffffffffffff1663f88bf15a846001807fffffffffffffffffffffffffffffffffffffffffffffffffffffffffffffffff6040518563ffffffff1660e01b81526004016102c29493929190610d36565b6040805180830381600087803b1580156102db57600080fd5b505af11580156102ef573d6000803e3d6000fd5b505050506040513d601f19601f820116820180604052508101906103139190610968565b91509150610342897f00000000000000000000000000000000000000000000000000000000000000008361047b565b6000807f000000000000000000000000000000000000000000000000000000000000000073ffffffffffffffffffffffffffffffffffffffff1663f305d719858d868e8e8e8e6040518863ffffffff1660e01b81526004016103a996959493929190610c55565b6060604051808303818588803b1580156103c257600080fd5b505af11580156103d6573d6000803e3d6000fd5b50505050506040513d601f19601f820116820180604052508101906103fb91906109a4565b50915091508183111561044f576104348b7f0000000000000000000000000000000000000000000000000000000000000000600061047b565b61044a8b3384866104459190610da2565b6105b1565b61046e565b8084111561046d5761046c3382866104679190610da2565b6106e7565b5b5b5050505050505050505050565b6000808473ffffffffffffffffffffffffffffffffffffffff1663095ea7b385856040516024016104ad929190610c2c565b6040516020818303038152906040529060e01b6020820180517bffffffffffffffffffffffffffffffffffffffffffffffffffffffff83818316178352505050506040516104fb9190610bc3565b6000604051808303816000865af19150503d8060008114610538576040519150601f19603f3d011682016040523d82523d6000602084013e61053d565b606091505b509150915081801561056b575060008151148061056a5750808060200190518101906105699190610916565b5b5b6105aa576040517f08c379a00000000000000000000000000000000000000000000000000000000081526004016105a190610cf6565b60405180910390fd5b5050505050565b6000808473ffffffffffffffffffffffffffffffffffffffff1663a9059cbb85856040516024016105e3929190610c2c565b6040516020818303038152906040529060e01b6020820180517bffffffffffffffffffffffffffffffffffffffffffffffffffffffff83818316178352505050506040516106319190610bc3565b6000604051808303816000865af19150503d806000811461066e576040519150601f19603f3d011682016040523d82523d6000602084013e610673565b606091505b50915091508180156106a157506000815114806106a057508080602001905181019061069f9190610916565b5b5b6106e0576040517f08c379a00000000000000000000000000000000000000000000000000000000081526004016106d790610d16565b60405180910390fd5b5050505050565b60008273ffffffffffffffffffffffffffffffffffffffff1682600067ffffffffffffffff811115610742577f4e487b7100000000000000000000000000000000000000000000000000000000600052604160045260246000fd5b6040519080825280601f01601f1916602001820160405280156107745781602001600182028036833780820191505090505b506040516107829190610bc3565b60006040518083038185875af1925050503d80600081146107bf576040519150601f19603f3d011682016040523d82523d6000602084013e6107c4565b606091505b5050905080610808576040517f08c379a00000000000000000000000000000000000000000000000000000000081526004016107ff90610cb6565b60405180910390fd5b505050565b60008135905061081c81610e92565b92915050565b60008151905061083181610e92565b92915050565b60008151905061084681610ea9565b92915050565b60008135905061085b81610ec0565b92915050565b60008151905061087081610ec0565b92915050565b60006020828403121561088857600080fd5b600061089684828501610822565b91505092915050565b600080600080600060a086880312156108b757600080fd5b60006108c58882890161080d565b95505060206108d68882890161084c565b94505060406108e78882890161084c565b93505060606108f88882890161080d565b92505060806109098882890161084c565b9150509295509295909350565b60006020828403121561092857600080fd5b600061093684828501610837565b91505092915050565b60006020828403121561095157600080fd5b600061095f84828501610861565b91505092915050565b6000806040838503121561097b57600080fd5b600061098985828601610861565b925050602061099a85828601610861565b9150509250929050565b6000806000606084860312156109b957600080fd5b60006109c786828701610861565b93505060206109d886828701610861565b92505060406109e986828701610861565b9150509250925092565b6109fc81610dd6565b82525050565b6000610a0d82610d7b565b610a178185610d86565b9350610a27818560208601610e30565b80840191505092915050565b610a3c81610e1e565b82525050565b6000610a4f603483610d91565b91507f5472616e7366657248656c7065723a3a736166655472616e736665724554483a60008301527f20455448207472616e73666572206661696c65640000000000000000000000006020830152604082019050919050565b6000610ab5601483610d91565b91507f5452414e534645525f46524f4d5f4641494c45440000000000000000000000006000830152602082019050919050565b6000610af5602b83610d91565b91507f5472616e7366657248656c7065723a3a73616665417070726f76653a2061707060008301527f726f7665206661696c65640000000000000000000000000000000000000000006020830152604082019050919050565b6000610b5b602d83610d91565b91507f5472616e7366657248656c7065723a3a736166655472616e736665723a20747260008301527f616e73666572206661696c6564000000000000000000000000000000000000006020830152604082019050919050565b610bbd81610e14565b82525050565b6000610bcf8284610a02565b915081905092915050565b6000602082019050610bef60008301846109f3565b92915050565b6000606082019050610c0a60008301866109f3565b610c1760208301856109f3565b610c246040830184610bb4565b949350505050565b6000604082019050610c4160008301856109f3565b610c4e6020830184610bb4565b9392505050565b600060c082019050610c6a60008301896109f3565b610c776020830188610bb4565b610c846040830187610bb4565b610c916060830186610bb4565b610c9e60808301856109f3565b610cab60a0830184610bb4565b979650505050505050565b60006020820190508181036000830152610ccf81610a42565b9050919050565b60006020820190508181036000830152610cef81610aa8565b9050919050565b60006020820190508181036000830152610d0f81610ae8565b9050919050565b60006020820190508181036000830152610d2f81610b4e565b9050919050565b6000608082019050610d4b6000830187610bb4565b610d586020830186610a33565b610d656040830185610a33565b610d726060830184610bb4565b95945050505050565b600081519050919050565b600081905092915050565b600082825260208201905092915050565b6000610dad82610e14565b9150610db883610e14565b925082821015610dcb57610dca610e63565b5b828203905092915050565b6000610de182610df4565b9050919050565b60008115159050919050565b600073ffffffffffffffffffffffffffffffffffffffff82169050919050565b6000819050919050565b6000610e2982610e14565b9050919050565b60005b83811015610e4e578082015181840152602081019050610e33565b83811115610e5d576000848401525b50505050565b7f4e487b7100000000000000000000000000000000000000000000000000000000600052601160045260246000fd5b610e9b81610dd6565b8114610ea657600080fd5b50565b610eb281610de8565b8114610ebd57600080fd5b50565b610ec981610e14565b8114610ed457600080fd5b5056fea26469706673582212203616d7f34e13bdb0431a88f7883918fddb16b4a8fead043e601888590bfd4faf64736f6c63430008000033",
  "linkReferences": {},
  "deployedLinkReferences": {}
}