{
  "_format": "hh-sol-artifact-1",
  "contractName": "ExampleComputeLiquidityValue",
  "sourceName": "contracts/examples/ExampleComputeLiquidityValue.sol",
  "abi": [
    {
      "inputs": [
        {
          "internalType": "address",
          "name": "factory_",
          "type": "address"
        }
      ],
      "stateMutability": "nonpayable",
      "type": "constructor"
    },
    {
      "inputs": [],
      "name": "factory",
      "outputs": [
        {
          "internalType": "address",
          "name": "",
          "type": "address"
        }
      ],
      "stateMutability": "view",
      "type": "function"
    },
    {
      "inputs": [
        {
          "internalType": "address",
          "name": "tokenA",
          "type": "address"
        },
        {
          "internalType": "address",
          "name": "tokenB",
          "type": "address"
        },
        {
          "internalType": "uint256",
          "name": "truePriceTokenA",
          "type": "uint256"
        },
        {
          "internalType": "uint256",
          "name": "truePriceTokenB",
          "type": "uint256"
        },
        {
          "internalType": "uint256",
          "name": "liquidityAmount",
          "type": "uint256"
        }
      ],
      "name": "getGasCostOfGetLiquidityValueAfterArbitrageToPrice",
      "outputs": [
        {
          "internalType": "uint256",
          "name": "",
          "type": "uint256"
        }
      ],
      "stateMutability": "view",
      "type": "function"
    },
    {
      "inputs": [
        {
          "internalType": "address",
          "name": "tokenA",
          "type": "address"
        },
        {
          "internalType": "address",
          "name": "tokenB",
          "type": "address"
        },
        {
          "internalType": "uint256",
          "name": "liquidityAmount",
          "type": "uint256"
        }
      ],
      "name": "getLiquidityValue",
      "outputs": [
        {
          "internalType": "uint256",
          "name": "tokenAAmount",
          "type": "uint256"
        },
        {
          "internalType": "uint256",
          "name": "tokenBAmount",
          "type": "uint256"
        }
      ],
      "stateMutability": "view",
      "type": "function"
    },
    {
      "inputs": [
        {
          "internalType": "address",
          "name": "tokenA",
          "type": "address"
        },
        {
          "internalType": "address",
          "name": "tokenB",
          "type": "address"
        },
        {
          "internalType": "uint256",
          "name": "truePriceTokenA",
          "type": "uint256"
        },
        {
          "internalType": "uint256",
          "name": "truePriceTokenB",
          "type": "uint256"
        },
        {
          "internalType": "uint256",
          "name": "liquidityAmount",
          "type": "uint256"
        }
      ],
      "name": "getLiquidityValueAfterArbitrageToPrice",
      "outputs": [
        {
          "internalType": "uint256",
          "name": "tokenAAmount",
          "type": "uint256"
        },
        {
          "internalType": "uint256",
          "name": "tokenBAmount",
          "type": "uint256"
        }
      ],
      "stateMutability": "view",
      "type": "function"
    },
    {
      "inputs": [
        {
          "internalType": "address",
          "name": "tokenA",
          "type": "address"
        },
        {
          "internalType": "address",
          "name": "tokenB",
          "type": "address"
        },
        {
          "internalType": "uint256",
          "name": "truePriceTokenA",
          "type": "uint256"
        },
        {
          "internalType": "uint256",
          "name": "truePriceTokenB",
          "type": "uint256"
        }
      ],
      "name": "getReservesAfterArbitrage",
      "outputs": [
        {
          "internalType": "uint256",
          "name": "reserveA",
          "type": "uint256"
        },
        {
          "internalType": "uint256",
          "name": "reserveB",
          "type": "uint256"
        }
      ],
      "stateMutability": "view",
      "type": "function"
    }
  ],
  "bytecode": "0x60a06040523480156200001157600080fd5b506040516200206a3803806200206a83398181016040528101906200003791906200008c565b8073ffffffffffffffffffffffffffffffffffffffff1660808173ffffffffffffffffffffffffffffffffffffffff1660601b815250505062000106565b6000815190506200008681620000ec565b92915050565b6000602082840312156200009f57600080fd5b6000620000af8482850162000075565b91505092915050565b6000620000c582620000cc565b9050919050565b600073ffffffffffffffffffffffffffffffffffffffff82169050919050565b620000f781620000b8565b81146200010357600080fd5b50565b60805160601c611f29620001416000396000818161014501528181610182015281816101c40152818161020f01526102390152611f296000f3fe608060405234801561001057600080fd5b50600436106100575760003560e01c80633558e94c1461005c57806369a2fcbd1461008d57806380caa353146100be578063c45a0155146100ee578063d9b7a6e71461010c575b600080fd5b610076600480360381019061007191906114f4565b61013d565b604051610084929190611c34565b60405180910390f35b6100a760048036038101906100a29190611557565b61017a565b6040516100b5929190611c34565b60405180910390f35b6100d860048036038101906100d39190611557565b6101b9565b6040516100e59190611c19565b60405180910390f35b6100f661020d565b6040516101039190611abe565b60405180910390f35b610126600480360381019061012191906114a5565b610231565b604051610134929190611c34565b60405180910390f35b60008061016d7f00000000000000000000000000000000000000000000000000000000000000008787878761026c565b9150915094509492505050565b6000806101ab7f00000000000000000000000000000000000000000000000000000000000000008888888888610365565b915091509550959350505050565b6000805a90506101ed7f00000000000000000000000000000000000000000000000000000000000000008888888888610365565b505060005a905080826102009190611d5a565b9250505095945050505050565b7f000000000000000000000000000000000000000000000000000000000000000081565b6000806102607f00000000000000000000000000000000000000000000000000000000000000008686866105bf565b91509150935093915050565b60008061027a8787876107c6565b80925081935050506000821180156102925750600081115b6102d1576040517f08c379a00000000000000000000000000000000000000000000000000000000081526004016102c890611af9565b60405180910390fd5b6000806102e0868686866108d8565b9150915060008114156102f457505061035b565b811561032b5760006103078286866109d7565b905081856103159190611c79565b945080846103239190611d5a565b935050610358565b60006103388285876109d7565b905081846103469190611c79565b935080856103549190611d5a565b9450505b50505b9550959350505050565b60008060008073ffffffffffffffffffffffffffffffffffffffff168973ffffffffffffffffffffffffffffffffffffffff1663017e7e586040518163ffffffff1660e01b815260040160206040518083038186803b1580156103c757600080fd5b505afa1580156103db573d6000803e3d6000fd5b505050506040513d601f19601f820116820180604052508101906103ff919061147c565b73ffffffffffffffffffffffffffffffffffffffff161415905060006104268a8a8a610add565b90506000826104365760006104b5565b8173ffffffffffffffffffffffffffffffffffffffff16637464fc3d6040518163ffffffff1660e01b815260040160206040518083038186803b15801561047c57600080fd5b505afa158015610490573d6000803e3d6000fd5b505050506040513d601f19601f820116820180604052508101906104b4919061161d565b5b905060008273ffffffffffffffffffffffffffffffffffffffff166318160ddd6040518163ffffffff1660e01b815260040160206040518083038186803b1580156104ff57600080fd5b505afa158015610513573d6000803e3d6000fd5b505050506040513d601f19601f82011682018060405250810190610537919061161d565b90508681101580156105495750600087115b610588576040517f08c379a000000000000000000000000000000000000000000000000000000000815260040161057f90611bd9565b60405180910390fd5b6000806105988e8e8e8e8e61026c565b915091506105aa8282858c8a89610b4f565b97509750505050505050965096945050505050565b6000806000806105d08888886107c6565b9150915060006105e1898989610add565b905060008073ffffffffffffffffffffffffffffffffffffffff168a73ffffffffffffffffffffffffffffffffffffffff1663017e7e586040518163ffffffff1660e01b815260040160206040518083038186803b15801561064257600080fd5b505afa158015610656573d6000803e3d6000fd5b505050506040513d601f19601f8201168201806040525081019061067a919061147c565b73ffffffffffffffffffffffffffffffffffffffff16141590506000816106a2576000610721565b8273ffffffffffffffffffffffffffffffffffffffff16637464fc3d6040518163ffffffff1660e01b815260040160206040518083038186803b1580156106e857600080fd5b505afa1580156106fc573d6000803e3d6000fd5b505050506040513d601f19601f82011682018060405250810190610720919061161d565b5b905060008373ffffffffffffffffffffffffffffffffffffffff166318160ddd6040518163ffffffff1660e01b815260040160206040518083038186803b15801561076b57600080fd5b505afa15801561077f573d6000803e3d6000fd5b505050506040513d601f19601f820116820180604052508101906107a3919061161d565b90506107b38686838c8787610b4f565b9750975050505050505094509492505050565b60008060006107d58585610c55565b5090506000806107e6888888610add565b73ffffffffffffffffffffffffffffffffffffffff16630902f1ac6040518163ffffffff1660e01b815260040160606040518083038186803b15801561082b57600080fd5b505afa15801561083f573d6000803e3d6000fd5b505050506040513d601f19601f8201168201806040525081019061086391906115ce565b506dffffffffffffffffffffffffffff1691506dffffffffffffffffffffffffffff1691508273ffffffffffffffffffffffffffffffffffffffff168773ffffffffffffffffffffffffffffffffffffffff16146108c25780826108c5565b81815b8095508196505050505050935093915050565b600080856108e7858786610d83565b10915060006108ff8486610e7190919063ffffffff16565b9050600061095661095161091e6103e885610e7190919063ffffffff16565b86610929578961092b565b8a5b61094c6103e58961093c578d61093e565b8c5b610e7190919063ffffffff16565b610d83565b610ede565b905060006103e58561097c576109776103e888610e7190919063ffffffff16565b610992565b6109916103e889610e7190919063ffffffff16565b5b61099c9190611ccf565b9050808210156109b557600080945094505050506109ce565b6109c881836110aa90919063ffffffff16565b93505050505b94509492505050565b6000808411610a1b576040517f08c379a0000000000000000000000000000000000000000000000000000000008152600401610a1290611bf9565b60405180910390fd5b600083118015610a2b5750600082115b610a6a576040517f08c379a0000000000000000000000000000000000000000000000000000000008152600401610a6190611b79565b60405180910390fd5b6000610a816103e586610e7190919063ffffffff16565b90506000610a988483610e7190919063ffffffff16565b90506000610ac383610ab56103e889610e7190919063ffffffff16565b61110390919063ffffffff16565b90508082610ad19190611ccf565b93505050509392505050565b6000806000610aec8585610c55565b91509150858282604051602001610b04929190611a50565b60405160208183030381529060405280519060200120604051602001610b2b929190611a7c565b6040516020818303038152906040528051906020012060001c925050509392505050565b600080838015610b5f5750600083115b15610c0a576000610b81610b7c898b610e7190919063ffffffff16565b610ede565b90506000610b8e85610ede565b905080821115610c075760008890506000610bb283856110aa90919063ffffffff16565b90506000610bdc84610bce600588610e7190919063ffffffff16565b61110390919063ffffffff16565b90506000610beb848484610d83565b9050610c00818d61110390919063ffffffff16565b9b50505050505b50505b85610c1e868a610e7190919063ffffffff16565b610c289190611ccf565b86610c3c878a610e7190919063ffffffff16565b610c469190611ccf565b91509150965096945050505050565b6000808273ffffffffffffffffffffffffffffffffffffffff168473ffffffffffffffffffffffffffffffffffffffff161415610cc7576040517f08c379a0000000000000000000000000000000000000000000000000000000008152600401610cbe90611b59565b60405180910390fd5b8273ffffffffffffffffffffffffffffffffffffffff168473ffffffffffffffffffffffffffffffffffffffff1610610d01578284610d04565b83835b8092508193505050600073ffffffffffffffffffffffffffffffffffffffff168273ffffffffffffffffffffffffffffffffffffffff161415610d7c576040517f08c379a0000000000000000000000000000000000000000000000000000000008152600401610d7390611bb9565b60405180910390fd5b9250929050565b6000806000610d92868661115c565b9150915060008480610dcd577f4e487b7100000000000000000000000000000000000000000000000000000000600052601260045260246000fd5b868809905082811115610dea57600182610de79190611d5a565b91505b8083610df69190611d5a565b92506000821415610e17578483610e0d9190611ccf565b9350505050610e6a565b848210610e59576040517f08c379a0000000000000000000000000000000000000000000000000000000008152600401610e5090611b99565b60405180910390fd5b610e648383876111f7565b93505050505b9392505050565b600080821480610e99575082828385610e8a9190611d00565b925082610e979190611ccf565b145b610ed8576040517f08c379a0000000000000000000000000000000000000000000000000000000008152600401610ecf90611b19565b60405180910390fd5b92915050565b600080821415610ef157600090506110a5565b60008290506000600190507001000000000000000000000000000000008210610f2357608082901c9150604081901b90505b680100000000000000008210610f4257604082901c9150602081901b90505b6401000000008210610f5d57602082901c9150601081901b90505b620100008210610f7657601082901c9150600881901b90505b6101008210610f8e57600882901c9150600481901b90505b60108210610fa557600482901c9150600281901b90505b60088210610fb557600181901b90505b60018185610fc39190611ccf565b82610fce9190611c79565b901c905060018185610fe09190611ccf565b82610feb9190611c79565b901c905060018185610ffd9190611ccf565b826110089190611c79565b901c90506001818561101a9190611ccf565b826110259190611c79565b901c9050600181856110379190611ccf565b826110429190611c79565b901c9050600181856110549190611ccf565b8261105f9190611c79565b901c9050600181856110719190611ccf565b8261107c9190611c79565b901c90506000818561108e9190611ccf565b905080821061109d578061109f565b815b93505050505b919050565b60008282846110b99190611d5a565b91508111156110fd576040517f08c379a00000000000000000000000000000000000000000000000000000000081526004016110f490611ad9565b60405180910390fd5b92915050565b60008282846111129190611c79565b9150811015611156576040517f08c379a000000000000000000000000000000000000000000000000000000000815260040161114d90611b39565b60405180910390fd5b92915050565b60008060007fffffffffffffffffffffffffffffffffffffffffffffffffffffffffffffffff806111b6577f4e487b7100000000000000000000000000000000000000000000000000000000600052601260045260246000fd5b848609905083856111c79190611d00565b925082816111d59190611d5a565b9150828110156111ef576001826111ec9190611d5a565b91505b509250929050565b600080826001847fffffffffffffffffffffffffffffffffffffffffffffffffffffffffffffffff6112299190611d5a565b6112339190611c79565b16905080836112429190611ccf565b925080856112509190611ccf565b94506001816001837fffffffffffffffffffffffffffffffffffffffffffffffffffffffffffffffff6112839190611d5a565b61128d9190611c79565b6112979190611ccf565b6112a19190611c79565b846112ac9190611d00565b856112b79190611c79565b945060006001905080846112cb9190611d00565b60026112d79190611d5a565b816112e29190611d00565b905080846112f09190611d00565b60026112fc9190611d5a565b816113079190611d00565b905080846113159190611d00565b60026113219190611d5a565b8161132c9190611d00565b9050808461133a9190611d00565b60026113469190611d5a565b816113519190611d00565b9050808461135f9190611d00565b600261136b9190611d5a565b816113769190611d00565b905080846113849190611d00565b60026113909190611d5a565b8161139b9190611d00565b905080846113a99190611d00565b60026113b59190611d5a565b816113c09190611d00565b905080846113ce9190611d00565b60026113da9190611d5a565b816113e59190611d00565b905080866113f39190611d00565b925050509392505050565b60008135905061140d81611e97565b92915050565b60008151905061142281611e97565b92915050565b60008151905061143781611eae565b92915050565b60008135905061144c81611ec5565b92915050565b60008151905061146181611ec5565b92915050565b60008151905061147681611edc565b92915050565b60006020828403121561148e57600080fd5b600061149c84828501611413565b91505092915050565b6000806000606084860312156114ba57600080fd5b60006114c8868287016113fe565b93505060206114d9868287016113fe565b92505060406114ea8682870161143d565b9150509250925092565b6000806000806080858703121561150a57600080fd5b6000611518878288016113fe565b9450506020611529878288016113fe565b935050604061153a8782880161143d565b925050606061154b8782880161143d565b91505092959194509250565b600080600080600060a0868803121561156f57600080fd5b600061157d888289016113fe565b955050602061158e888289016113fe565b945050604061159f8882890161143d565b93505060606115b08882890161143d565b92505060806115c18882890161143d565b9150509295509295909350565b6000806000606084860312156115e357600080fd5b60006115f186828701611428565b935050602061160286828701611428565b925050604061161386828701611467565b9150509250925092565b60006020828403121561162f57600080fd5b600061163d84828501611452565b91505092915050565b61164f81611d8e565b82525050565b61166661166182611d8e565b611dfe565b82525050565b61167d61167882611da0565b611e10565b82525050565b6000611690601583611c5d565b91507f64732d6d6174682d7375622d756e646572666c6f7700000000000000000000006000830152602082019050919050565b60006116d0602d83611c5d565b91507f556e697377617056324172626974726167654c6962726172793a205a45524f5f60008301527f504149525f5245534552564553000000000000000000000000000000000000006020830152604082019050919050565b6000611736602083611c6e565b91507ffbb84ef4af8cf5272eb5a70962628544cc9380d749144bf57095f3769a804d956000830152602082019050919050565b6000611776601483611c5d565b91507f64732d6d6174682d6d756c2d6f766572666c6f770000000000000000000000006000830152602082019050919050565b60006117b6601483611c5d565b91507f64732d6d6174682d6164642d6f766572666c6f770000000000000000000000006000830152602082019050919050565b60006117f6602583611c5d565b91507f556e697377617056324c6962726172793a204944454e544943414c5f4144445260008301527f45535345530000000000000000000000000000000000000000000000000000006020830152604082019050919050565b600061185c602883611c5d565b91507f556e697377617056324c6962726172793a20494e53554646494349454e545f4c60008301527f49515549444954590000000000000000000000000000000000000000000000006020830152604082019050919050565b60006118c2600183611c6e565b91507fff000000000000000000000000000000000000000000000000000000000000006000830152600182019050919050565b6000611902601a83611c5d565b91507f46756c6c4d6174683a2046554c4c4449565f4f564552464c4f570000000000006000830152602082019050919050565b6000611942601e83611c5d565b91507f556e697377617056324c6962726172793a205a45524f5f4144445245535300006000830152602082019050919050565b6000611982602783611c5d565b91507f436f6d707574654c697175696469747956616c75653a204c495155494449545960008301527f5f414d4f554e54000000000000000000000000000000000000000000000000006020830152604082019050919050565b60006119e8602b83611c5d565b91507f556e697377617056324c6962726172793a20494e53554646494349454e545f4960008301527f4e5055545f414d4f554e540000000000000000000000000000000000000000006020830152604082019050919050565b611a4a81611de4565b82525050565b6000611a5c8285611655565b601482019150611a6c8284611655565b6014820191508190509392505050565b6000611a87826118b5565b9150611a938285611655565b601482019150611aa3828461166c565b602082019150611ab282611729565b91508190509392505050565b6000602082019050611ad36000830184611646565b92915050565b60006020820190508181036000830152611af281611683565b9050919050565b60006020820190508181036000830152611b12816116c3565b9050919050565b60006020820190508181036000830152611b3281611769565b9050919050565b60006020820190508181036000830152611b52816117a9565b9050919050565b60006020820190508181036000830152611b72816117e9565b9050919050565b60006020820190508181036000830152611b928161184f565b9050919050565b60006020820190508181036000830152611bb2816118f5565b9050919050565b60006020820190508181036000830152611bd281611935565b9050919050565b60006020820190508181036000830152611bf281611975565b9050919050565b60006020820190508181036000830152611c12816119db565b9050919050565b6000602082019050611c2e6000830184611a41565b92915050565b6000604082019050611c496000830185611a41565b611c566020830184611a41565b9392505050565b600082825260208201905092915050565b600081905092915050565b6000611c8482611de4565b9150611c8f83611de4565b9250827fffffffffffffffffffffffffffffffffffffffffffffffffffffffffffffffff03821115611cc457611cc3611e2c565b5b828201905092915050565b6000611cda82611de4565b9150611ce583611de4565b925082611cf557611cf4611e5b565b5b828204905092915050565b6000611d0b82611de4565b9150611d1683611de4565b9250817fffffffffffffffffffffffffffffffffffffffffffffffffffffffffffffffff0483118215151615611d4f57611d4e611e2c565b5b828202905092915050565b6000611d6582611de4565b9150611d7083611de4565b925082821015611d8357611d82611e2c565b5b828203905092915050565b6000611d9982611dc4565b9050919050565b6000819050919050565b60006dffffffffffffffffffffffffffff82169050919050565b600073ffffffffffffffffffffffffffffffffffffffff82169050919050565b6000819050919050565b600063ffffffff82169050919050565b6000611e0982611e1a565b9050919050565b6000819050919050565b6000611e2582611e8a565b9050919050565b7f4e487b7100000000000000000000000000000000000000000000000000000000600052601160045260246000fd5b7f4e487b7100000000000000000000000000000000000000000000000000000000600052601260045260246000fd5b60008160601b9050919050565b611ea081611d8e565b8114611eab57600080fd5b50565b611eb781611daa565b8114611ec257600080fd5b50565b611ece81611de4565b8114611ed957600080fd5b50565b611ee581611dee565b8114611ef057600080fd5b5056fea2646970667358221220431d75a66e5b0f8daae7f74883ca77091f77546deb321e2ae970a8a60fa2928164736f6c63430008000033",
  "linkReferences": {},
  "deployedLinkReferences": {}
}